{
  "_format": "hh-sol-artifact-1",
  "contractName": "Donate",
  "sourceName": "contracts/Donate.sol",
  "abi": [
    {
      "inputs": [
        {
          "internalType": "string",
          "name": "_name",
          "type": "string"
        },
        {
          "internalType": "string",
          "name": "_about",
          "type": "string"
        },
        {
          "internalType": "uint256",
          "name": "_goalAmount",
          "type": "uint256"
        }
      ],
      "name": "createOrganization",
      "outputs": [],
      "stateMutability": "nonpayable",
      "type": "function"
    },
    {
      "inputs": [],
      "name": "getAllOrganizations",
      "outputs": [
        {
          "components": [
            {
              "internalType": "address",
              "name": "creator",
              "type": "address"
            },
            {
              "internalType": "string",
              "name": "name",
              "type": "string"
            },
            {
              "internalType": "string",
              "name": "about",
              "type": "string"
            },
            {
              "internalType": "uint256",
              "name": "goalAmount",
              "type": "uint256"
            },
            {
              "internalType": "uint256",
              "name": "currentAmount",
              "type": "uint256"
            },
            {
              "internalType": "uint256",
              "name": "createdTimestamp",
              "type": "uint256"
            }
          ],
          "internalType": "struct Donate.Organization[]",
          "name": "",
          "type": "tuple[]"
        }
      ],
      "stateMutability": "view",
      "type": "function"
    },
    {
      "inputs": [],
      "name": "getDonationLink",
      "outputs": [],
      "stateMutability": "nonpayable",
      "type": "function"
    },
    {
      "inputs": [],
      "name": "getOrganiationsCount",
      "outputs": [
        {
          "internalType": "uint256",
          "name": "",
          "type": "uint256"
        }
      ],
      "stateMutability": "view",
      "type": "function"
    },
    {
      "inputs": [
        {
          "internalType": "uint256",
          "name": "index",
          "type": "uint256"
        }
      ],
      "name": "getOrganization",
      "outputs": [
        {
          "components": [
            {
              "internalType": "address",
              "name": "creator",
              "type": "address"
            },
            {
              "internalType": "string",
              "name": "name",
              "type": "string"
            },
            {
              "internalType": "string",
              "name": "about",
              "type": "string"
            },
            {
              "internalType": "uint256",
              "name": "goalAmount",
              "type": "uint256"
            },
            {
              "internalType": "uint256",
              "name": "currentAmount",
              "type": "uint256"
            },
            {
              "internalType": "uint256",
              "name": "createdTimestamp",
              "type": "uint256"
            }
          ],
          "internalType": "struct Donate.Organization",
          "name": "",
          "type": "tuple"
        }
      ],
      "stateMutability": "view",
      "type": "function"
    },
    {
      "inputs": [
        {
          "internalType": "uint256",
          "name": "amount",
          "type": "uint256"
        },
        {
          "internalType": "address",
          "name": "add",
          "type": "address"
        }
      ],
      "name": "makeDonation",
      "outputs": [],
      "stateMutability": "nonpayable",
      "type": "function"
    },
    {
      "inputs": [
        {
          "internalType": "uint256",
          "name": "",
          "type": "uint256"
        }
      ],
      "name": "organizations",
      "outputs": [
        {
          "internalType": "address",
          "name": "creator",
          "type": "address"
        },
        {
          "internalType": "string",
          "name": "name",
          "type": "string"
        },
        {
          "internalType": "string",
          "name": "about",
          "type": "string"
        },
        {
          "internalType": "uint256",
          "name": "goalAmount",
          "type": "uint256"
        },
        {
          "internalType": "uint256",
          "name": "currentAmount",
          "type": "uint256"
        },
        {
          "internalType": "uint256",
          "name": "createdTimestamp",
          "type": "uint256"
        }
      ],
      "stateMutability": "view",
      "type": "function"
    },
    {
      "inputs": [],
      "name": "owner",
      "outputs": [
        {
          "internalType": "address",
          "name": "",
          "type": "address"
        }
      ],
      "stateMutability": "view",
      "type": "function"
    },
    {
      "inputs": [],
      "name": "receivedTokens",
      "outputs": [],
      "stateMutability": "nonpayable",
      "type": "function"
    },
    {
      "inputs": [],
      "name": "trackTokensReceived",
      "outputs": [],
      "stateMutability": "nonpayable",
      "type": "function"
    },
    {
      "inputs": [],
      "name": "withdrawnTokens",
      "outputs": [],
      "stateMutability": "nonpayable",
      "type": "function"
    }
  ],
  "bytecode": "0x608060405234801561001057600080fd5b5061137c806100206000396000f3fe608060405234801561001057600080fd5b50600436106100a95760003560e01c80639e8a131a116100715780639e8a131a14610140578063a9decb361461015e578063b22c70de14610168578063d87d0cc014610184578063e792dd8a1461018e578063fd010881146101c3576100a9565b8063086ed938146100ae5780630905aa5c146100cc5780634526f690146100d657806379a876a0146101065780638da5cb5b14610122575b600080fd5b6100b66101cd565b6040516100c39190610b53565b60405180910390f35b6100d46103c4565b005b6100f060048036038101906100eb9190610bb5565b6103c6565b6040516100fd9190610c72565b60405180910390f35b610120600480360381019061011b9190610dc9565b6105e7565b005b61012a610714565b6040516101379190610e63565b60405180910390f35b610148610738565b6040516101559190610e8d565b60405180910390f35b610166610745565b005b610182600480360381019061017d9190610ed4565b610747565b005b61018c61074b565b005b6101a860048036038101906101a39190610bb5565b61074d565b6040516101ba96959493929190610f5e565b60405180910390f35b6101cb6108c9565b005b60606001805480602002602001604051908101604052809291908181526020016000905b828210156103bb57838290600052602060002090600602016040518060c00160405290816000820160009054906101000a900473ffffffffffffffffffffffffffffffffffffffff1673ffffffffffffffffffffffffffffffffffffffff1673ffffffffffffffffffffffffffffffffffffffff16815260200160018201805461027a90610ffc565b80601f01602080910402602001604051908101604052809291908181526020018280546102a690610ffc565b80156102f35780601f106102c8576101008083540402835291602001916102f3565b820191906000526020600020905b8154815290600101906020018083116102d657829003601f168201915b5050505050815260200160028201805461030c90610ffc565b80601f016020809104026020016040519081016040528092919081815260200182805461033890610ffc565b80156103855780601f1061035a57610100808354040283529160200191610385565b820191906000526020600020905b81548152906001019060200180831161036857829003601f168201915b505050505081526020016003820154815260200160048201548152602001600582015481525050815260200190600101906101f1565b50505050905090565b565b6103ce6108cb565b6001805490508210610415576040517f08c379a000000000000000000000000000000000000000000000000000000000815260040161040c90611079565b60405180910390fd5b60006001838154811061042b5761042a611099565b5b90600052602060002090600602016040518060c00160405290816000820160009054906101000a900473ffffffffffffffffffffffffffffffffffffffff1673ffffffffffffffffffffffffffffffffffffffff1673ffffffffffffffffffffffffffffffffffffffff1681526020016001820180546104aa90610ffc565b80601f01602080910402602001604051908101604052809291908181526020018280546104d690610ffc565b80156105235780601f106104f857610100808354040283529160200191610523565b820191906000526020600020905b81548152906001019060200180831161050657829003601f168201915b5050505050815260200160028201805461053c90610ffc565b80601f016020809104026020016040519081016040528092919081815260200182805461056890610ffc565b80156105b55780601f1061058a576101008083540402835291602001916105b5565b820191906000526020600020905b81548152906001019060200180831161059857829003601f168201915b505050505081526020016003820154815260200160048201548152602001600582015481525050905080915050919050565b60006040518060c0016040528060008054906101000a900473ffffffffffffffffffffffffffffffffffffffff1673ffffffffffffffffffffffffffffffffffffffff16815260200185815260200184815260200183815260200160008152602001428152509050600181908060018154018082558091505060019003906000526020600020906006020160009091909190915060008201518160000160006101000a81548173ffffffffffffffffffffffffffffffffffffffff021916908373ffffffffffffffffffffffffffffffffffffffff16021790555060208201518160010190816106d79190611274565b5060408201518160020190816106ed9190611274565b50606082015181600301556080820151816004015560a08201518160050155505050505050565b60008054906101000a900473ffffffffffffffffffffffffffffffffffffffff1681565b6000600180549050905090565b565b5050565b565b6001818154811061075d57600080fd5b90600052602060002090600602016000915090508060000160009054906101000a900473ffffffffffffffffffffffffffffffffffffffff16908060010180546107a690610ffc565b80601f01602080910402602001604051908101604052809291908181526020018280546107d290610ffc565b801561081f5780601f106107f45761010080835404028352916020019161081f565b820191906000526020600020905b81548152906001019060200180831161080257829003601f168201915b50505050509080600201805461083490610ffc565b80601f016020809104026020016040519081016040528092919081815260200182805461086090610ffc565b80156108ad5780601f10610882576101008083540402835291602001916108ad565b820191906000526020600020905b81548152906001019060200180831161089057829003601f168201915b5050505050908060030154908060040154908060050154905086565b565b6040518060c00160405280600073ffffffffffffffffffffffffffffffffffffffff16815260200160608152602001606081526020016000815260200160008152602001600081525090565b600081519050919050565b600082825260208201905092915050565b6000819050602082019050919050565b600073ffffffffffffffffffffffffffffffffffffffff82169050919050565b600061096e82610943565b9050919050565b61097e81610963565b82525050565b600081519050919050565b600082825260208201905092915050565b60005b838110156109be5780820151818401526020810190506109a3565b60008484015250505050565b6000601f19601f8301169050919050565b60006109e682610984565b6109f0818561098f565b9350610a008185602086016109a0565b610a09816109ca565b840191505092915050565b6000819050919050565b610a2781610a14565b82525050565b600060c083016000830151610a456000860182610975565b5060208301518482036020860152610a5d82826109db565b91505060408301518482036040860152610a7782826109db565b9150506060830151610a8c6060860182610a1e565b506080830151610a9f6080860182610a1e565b5060a0830151610ab260a0860182610a1e565b508091505092915050565b6000610ac98383610a2d565b905092915050565b6000602082019050919050565b6000610ae982610917565b610af38185610922565b935083602082028501610b0585610933565b8060005b85811015610b415784840389528151610b228582610abd565b9450610b2d83610ad1565b925060208a01995050600181019050610b09565b50829750879550505050505092915050565b60006020820190508181036000830152610b6d8184610ade565b905092915050565b6000604051905090565b600080fd5b600080fd5b610b9281610a14565b8114610b9d57600080fd5b50565b600081359050610baf81610b89565b92915050565b600060208284031215610bcb57610bca610b7f565b5b6000610bd984828501610ba0565b91505092915050565b600060c083016000830151610bfa6000860182610975565b5060208301518482036020860152610c1282826109db565b91505060408301518482036040860152610c2c82826109db565b9150506060830151610c416060860182610a1e565b506080830151610c546080860182610a1e565b5060a0830151610c6760a0860182610a1e565b508091505092915050565b60006020820190508181036000830152610c8c8184610be2565b905092915050565b600080fd5b600080fd5b7f4e487b7100000000000000000000000000000000000000000000000000000000600052604160045260246000fd5b610cd6826109ca565b810181811067ffffffffffffffff82111715610cf557610cf4610c9e565b5b80604052505050565b6000610d08610b75565b9050610d148282610ccd565b919050565b600067ffffffffffffffff821115610d3457610d33610c9e565b5b610d3d826109ca565b9050602081019050919050565b82818337600083830152505050565b6000610d6c610d6784610d19565b610cfe565b905082815260208101848484011115610d8857610d87610c99565b5b610d93848285610d4a565b509392505050565b600082601f830112610db057610daf610c94565b5b8135610dc0848260208601610d59565b91505092915050565b600080600060608486031215610de257610de1610b7f565b5b600084013567ffffffffffffffff811115610e0057610dff610b84565b5b610e0c86828701610d9b565b935050602084013567ffffffffffffffff811115610e2d57610e2c610b84565b5b610e3986828701610d9b565b9250506040610e4a86828701610ba0565b9150509250925092565b610e5d81610963565b82525050565b6000602082019050610e786000830184610e54565b92915050565b610e8781610a14565b82525050565b6000602082019050610ea26000830184610e7e565b92915050565b610eb181610963565b8114610ebc57600080fd5b50565b600081359050610ece81610ea8565b92915050565b60008060408385031215610eeb57610eea610b7f565b5b6000610ef985828601610ba0565b9250506020610f0a85828601610ebf565b9150509250929050565b600082825260208201905092915050565b6000610f3082610984565b610f3a8185610f14565b9350610f4a8185602086016109a0565b610f53816109ca565b840191505092915050565b600060c082019050610f736000830189610e54565b8181036020830152610f858188610f25565b90508181036040830152610f998187610f25565b9050610fa86060830186610e7e565b610fb56080830185610e7e565b610fc260a0830184610e7e565b979650505050505050565b7f4e487b7100000000000000000000000000000000000000000000000000000000600052602260045260246000fd5b6000600282049050600182168061101457607f821691505b60208210810361102757611026610fcd565b5b50919050565b7f496e76616c696420696e64657800000000000000000000000000000000000000600082015250565b6000611063600d83610f14565b915061106e8261102d565b602082019050919050565b6000602082019050818103600083015261109281611056565b9050919050565b7f4e487b7100000000000000000000000000000000000000000000000000000000600052603260045260246000fd5b60008190508160005260206000209050919050565b60006020601f8301049050919050565b600082821b905092915050565b60006008830261112a7fffffffffffffffffffffffffffffffffffffffffffffffffffffffffffffffff826110ed565b61113486836110ed565b95508019841693508086168417925050509392505050565b6000819050919050565b600061117161116c61116784610a14565b61114c565b610a14565b9050919050565b6000819050919050565b61118b83611156565b61119f61119782611178565b8484546110fa565b825550505050565b600090565b6111b46111a7565b6111bf818484611182565b505050565b5b818110156111e3576111d86000826111ac565b6001810190506111c5565b5050565b601f821115611228576111f9816110c8565b611202846110dd565b81016020851015611211578190505b61122561121d856110dd565b8301826111c4565b50505b505050565b600082821c905092915050565b600061124b6000198460080261122d565b1980831691505092915050565b6000611264838361123a565b9150826002028217905092915050565b61127d82610984565b67ffffffffffffffff81111561129657611295610c9e565b5b6112a08254610ffc565b6112ab8282856111e7565b600060209050601f8311600181146112de57600084156112cc578287015190505b6112d68582611258565b86555061133e565b601f1984166112ec866110c8565b60005b82811015611314578489015182556001820191506020850194506020810190506112ef565b86831015611331578489015161132d601f89168261123a565b8355505b6001600288020188555050505b50505050505056fea264697066735822122097a8e1ca8477fedc74004ba175412762f8c9ec20923569000fe1d9f3ef098b9b64736f6c63430008130033",
  "linkReferences": {},
  "deployedLinkReferences": {}
}