{
  "_format": "hh-sol-artifact-1",
  "contractName": "Donate",
  "sourceName": "contracts/Donate.sol",
  "abi": [
    {
      "inputs": [],
      "stateMutability": "nonpayable",
      "type": "constructor"
    },
    {
      "anonymous": false,
      "inputs": [
        {
          "indexed": false,
          "internalType": "address",
          "name": "donor",
          "type": "address"
        },
        {
          "indexed": false,
          "internalType": "uint256",
          "name": "amount",
          "type": "uint256"
        }
      ],
      "name": "DonationMade",
      "type": "event"
    },
    {
      "anonymous": false,
      "inputs": [
        {
          "indexed": true,
          "internalType": "address",
          "name": "recipient",
          "type": "address"
        },
        {
          "indexed": false,
          "internalType": "uint256",
          "name": "amount",
          "type": "uint256"
        },
        {
          "indexed": false,
          "internalType": "uint256",
          "name": "timestamp",
          "type": "uint256"
        }
      ],
      "name": "WithdrawalMade",
      "type": "event"
    },
    {
      "inputs": [
        {
          "internalType": "string",
          "name": "_name",
          "type": "string"
        },
        {
          "internalType": "string",
          "name": "_about",
          "type": "string"
        },
        {
          "internalType": "uint256",
          "name": "_goalAmount",
          "type": "uint256"
        }
      ],
      "name": "createOrganization",
      "outputs": [],
      "stateMutability": "nonpayable",
      "type": "function"
    },
    {
      "inputs": [
        {
          "internalType": "uint256",
          "name": "_index",
          "type": "uint256"
        }
      ],
      "name": "donationsMade",
      "outputs": [
        {
          "components": [
            {
              "internalType": "address",
              "name": "donor",
              "type": "address"
            },
            {
              "internalType": "uint256",
              "name": "amount",
              "type": "uint256"
            },
            {
              "internalType": "uint256",
              "name": "timestamp",
              "type": "uint256"
            },
            {
              "internalType": "bool",
              "name": "isPaid",
              "type": "bool"
            }
          ],
          "internalType": "struct Donate.Donation[]",
          "name": "",
          "type": "tuple[]"
        }
      ],
      "stateMutability": "view",
      "type": "function"
    },
    {
      "inputs": [],
      "name": "getAllOrganizations",
      "outputs": [
        {
          "components": [
            {
              "internalType": "address",
              "name": "creator",
              "type": "address"
            },
            {
              "internalType": "string",
              "name": "name",
              "type": "string"
            },
            {
              "internalType": "string",
              "name": "about",
              "type": "string"
            },
            {
              "internalType": "uint256",
              "name": "goalAmount",
              "type": "uint256"
            },
            {
              "internalType": "uint256",
              "name": "currentAmount",
              "type": "uint256"
            },
            {
              "internalType": "uint256",
              "name": "createdTimestamp",
              "type": "uint256"
            }
          ],
          "internalType": "struct Donate.Organization[]",
          "name": "",
          "type": "tuple[]"
        }
      ],
      "stateMutability": "view",
      "type": "function"
    },
    {
      "inputs": [
        {
          "internalType": "uint256",
          "name": "_index",
          "type": "uint256"
        }
      ],
      "name": "getDonationLink",
      "outputs": [
        {
          "internalType": "string",
          "name": "",
          "type": "string"
        }
      ],
      "stateMutability": "view",
      "type": "function"
    },
    {
      "inputs": [],
      "name": "getOrganiationsCount",
      "outputs": [
        {
          "internalType": "uint256",
          "name": "",
          "type": "uint256"
        }
      ],
      "stateMutability": "view",
      "type": "function"
    },
    {
      "inputs": [
        {
          "internalType": "uint256",
          "name": "index",
          "type": "uint256"
        }
      ],
      "name": "getOrganization",
      "outputs": [
        {
          "components": [
            {
              "internalType": "address",
              "name": "creator",
              "type": "address"
            },
            {
              "internalType": "string",
              "name": "name",
              "type": "string"
            },
            {
              "internalType": "string",
              "name": "about",
              "type": "string"
            },
            {
              "internalType": "uint256",
              "name": "goalAmount",
              "type": "uint256"
            },
            {
              "internalType": "uint256",
              "name": "currentAmount",
              "type": "uint256"
            },
            {
              "internalType": "uint256",
              "name": "createdTimestamp",
              "type": "uint256"
            }
          ],
          "internalType": "struct Donate.Organization",
          "name": "",
          "type": "tuple"
        }
      ],
      "stateMutability": "view",
      "type": "function"
    },
    {
      "inputs": [
        {
          "internalType": "uint256",
          "name": "organizationIndex",
          "type": "uint256"
        }
      ],
      "name": "makeDonation",
      "outputs": [],
      "stateMutability": "payable",
      "type": "function"
    },
    {
      "inputs": [
        {
          "internalType": "uint256",
          "name": "",
          "type": "uint256"
        }
      ],
      "name": "organizations",
      "outputs": [
        {
          "internalType": "address",
          "name": "creator",
          "type": "address"
        },
        {
          "internalType": "string",
          "name": "name",
          "type": "string"
        },
        {
          "internalType": "string",
          "name": "about",
          "type": "string"
        },
        {
          "internalType": "uint256",
          "name": "goalAmount",
          "type": "uint256"
        },
        {
          "internalType": "uint256",
          "name": "currentAmount",
          "type": "uint256"
        },
        {
          "internalType": "uint256",
          "name": "createdTimestamp",
          "type": "uint256"
        }
      ],
      "stateMutability": "view",
      "type": "function"
    },
    {
      "inputs": [],
      "name": "owner",
      "outputs": [
        {
          "internalType": "address",
          "name": "",
          "type": "address"
        }
      ],
      "stateMutability": "view",
      "type": "function"
    },
    {
      "inputs": [],
      "name": "trackTokensReceived",
      "outputs": [],
      "stateMutability": "nonpayable",
      "type": "function"
    },
    {
      "inputs": [
        {
          "internalType": "uint256",
          "name": "organizationIndex",
          "type": "uint256"
        }
      ],
      "name": "withdrawTokens",
      "outputs": [],
      "stateMutability": "nonpayable",
      "type": "function"
    },
    {
      "inputs": [],
      "name": "withdrawnTokens",
      "outputs": [],
      "stateMutability": "nonpayable",
      "type": "function"
    }
  ],
  "bytecode": "0x608060405234801561001057600080fd5b50336000806101000a81548173ffffffffffffffffffffffffffffffffffffffff021916908373ffffffffffffffffffffffffffffffffffffffff160217905550612728806100606000396000f3fe6080604052600436106100a75760003560e01c806380037a611161006457806380037a61146101ba5780638da5cb5b146101f75780639e8a131a14610222578063a9decb361461024d578063b219f91614610264578063e792dd8a14610280576100a7565b8063033f1475146100ac578063086ed938146100e95780630905aa5c14610114578063315a095d1461012b5780634526f6901461015457806379a876a014610191575b600080fd5b3480156100b857600080fd5b506100d360048036038101906100ce91906113aa565b6102c2565b6040516100e09190611467565b60405180910390f35b3480156100f557600080fd5b506100fe610346565b60405161010b9190611675565b60405180910390f35b34801561012057600080fd5b5061012961053d565b005b34801561013757600080fd5b50610152600480360381019061014d91906113aa565b61053f565b005b34801561016057600080fd5b5061017b600480360381019061017691906113aa565b610735565b6040516101889190611727565b60405180910390f35b34801561019d57600080fd5b506101b860048036038101906101b3919061187e565b610956565b005b3480156101c657600080fd5b506101e160048036038101906101dc91906113aa565b610aea565b6040516101ee9190611a28565b60405180910390f35b34801561020357600080fd5b5061020c610c52565b6040516102199190611a59565b60405180910390f35b34801561022e57600080fd5b50610237610c76565b6040516102449190611a83565b60405180910390f35b34801561025957600080fd5b50610262610c83565b005b61027e600480360381019061027991906113aa565b610c85565b005b34801561028c57600080fd5b506102a760048036038101906102a291906113aa565b610f8f565b6040516102b996959493929190611a9e565b60405180910390f35b6060600180549050821061030b576040517f08c379a000000000000000000000000000000000000000000000000000000000815260040161030290611b59565b60405180910390fd5b60006103163361110b565b905060008160405160200161032b9190611c01565b60405160208183030381529060405290508092505050919050565b60606001805480602002602001604051908101604052809291908181526020016000905b8282101561053457838290600052602060002090600602016040518060c00160405290816000820160009054906101000a900473ffffffffffffffffffffffffffffffffffffffff1673ffffffffffffffffffffffffffffffffffffffff1673ffffffffffffffffffffffffffffffffffffffff1681526020016001820180546103f390611c52565b80601f016020809104026020016040519081016040528092919081815260200182805461041f90611c52565b801561046c5780601f106104415761010080835404028352916020019161046c565b820191906000526020600020905b81548152906001019060200180831161044f57829003601f168201915b5050505050815260200160028201805461048590611c52565b80601f01602080910402602001604051908101604052809291908181526020018280546104b190611c52565b80156104fe5780601f106104d3576101008083540402835291602001916104fe565b820191906000526020600020905b8154815290600101906020018083116104e157829003601f168201915b5050505050815260200160038201548152602001600482015481526020016005820154815250508152602001906001019061036a565b50505050905090565b565b6001805490508110610586576040517f08c379a000000000000000000000000000000000000000000000000000000000815260040161057d90611ccf565b60405180910390fd5b60006001828154811061059c5761059b611cef565b5b906000526020600020906006020190503373ffffffffffffffffffffffffffffffffffffffff168160000160009054906101000a900473ffffffffffffffffffffffffffffffffffffffff1673ffffffffffffffffffffffffffffffffffffffff161461063e576040517f08c379a000000000000000000000000000000000000000000000000000000000815260040161063590611d90565b60405180910390fd5b600081600401549050600082600401819055508160000160009054906101000a900473ffffffffffffffffffffffffffffffffffffffff1673ffffffffffffffffffffffffffffffffffffffff166108fc829081150290604051600060405180830381858888f193505050501580156106bb573d6000803e3d6000fd5b508160000160009054906101000a900473ffffffffffffffffffffffffffffffffffffffff1673ffffffffffffffffffffffffffffffffffffffff167f2d4d49c3e017b8235c908cbaa83a2431a08f3b950712696ece2088964fd399f08242604051610728929190611db0565b60405180910390a2505050565b61073d611314565b6001805490508210610784576040517f08c379a000000000000000000000000000000000000000000000000000000000815260040161077b90611b59565b60405180910390fd5b60006001838154811061079a57610799611cef565b5b90600052602060002090600602016040518060c00160405290816000820160009054906101000a900473ffffffffffffffffffffffffffffffffffffffff1673ffffffffffffffffffffffffffffffffffffffff1673ffffffffffffffffffffffffffffffffffffffff16815260200160018201805461081990611c52565b80601f016020809104026020016040519081016040528092919081815260200182805461084590611c52565b80156108925780601f1061086757610100808354040283529160200191610892565b820191906000526020600020905b81548152906001019060200180831161087557829003601f168201915b505050505081526020016002820180546108ab90611c52565b80601f01602080910402602001604051908101604052809291908181526020018280546108d790611c52565b80156109245780601f106108f957610100808354040283529160200191610924565b820191906000526020600020905b81548152906001019060200180831161090757829003601f168201915b505050505081526020016003820154815260200160048201548152602001600582015481525050905080915050919050565b600083511161099a576040517f08c379a000000000000000000000000000000000000000000000000000000000815260040161099190611e4b565b60405180910390fd5b600081116109dd576040517f08c379a00000000000000000000000000000000000000000000000000000000081526004016109d490611edd565b60405180910390fd5b60006040518060c001604052803373ffffffffffffffffffffffffffffffffffffffff16815260200185815260200184815260200183815260200160008152602001428152509050600181908060018154018082558091505060019003906000526020600020906006020160009091909190915060008201518160000160006101000a81548173ffffffffffffffffffffffffffffffffffffffff021916908373ffffffffffffffffffffffffffffffffffffffff1602179055506020820151816001019081610aad91906120a9565b506040820151816002019081610ac391906120a9565b50606082015181600301556080820151816004015560a08201518160050155505050505050565b60606002600060018481548110610b0457610b03611cef565b5b906000526020600020906006020160000160009054906101000a900473ffffffffffffffffffffffffffffffffffffffff1673ffffffffffffffffffffffffffffffffffffffff1673ffffffffffffffffffffffffffffffffffffffff168152602001908152602001600020805480602002602001604051908101604052809291908181526020016000905b82821015610c4757838290600052602060002090600402016040518060800160405290816000820160009054906101000a900473ffffffffffffffffffffffffffffffffffffffff1673ffffffffffffffffffffffffffffffffffffffff1673ffffffffffffffffffffffffffffffffffffffff16815260200160018201548152602001600282015481526020016003820160009054906101000a900460ff16151515158152505081526020019060010190610b90565b505050509050919050565b60008054906101000a900473ffffffffffffffffffffffffffffffffffffffff1681565b6000600180549050905090565b565b60003411610cc8576040517f08c379a0000000000000000000000000000000000000000000000000000000008152600401610cbf906121ed565b60405180910390fd5b6001805490508110610d0f576040517f08c379a0000000000000000000000000000000000000000000000000000000008152600401610d0690611ccf565b60405180910390fd5b600060018281548110610d2557610d24611cef565b5b906000526020600020906006020190508060030154348260040154610d4a919061223c565b1115610d8b576040517f08c379a0000000000000000000000000000000000000000000000000000000008152600401610d82906122bc565b60405180910390fd5b34816004016000828254610d9f919061223c565b92505081905550600060405180608001604052803373ffffffffffffffffffffffffffffffffffffffff1681526020013481526020014281526020016000151581525090506000826004015447610df691906122dc565b11610e36576040517f08c379a0000000000000000000000000000000000000000000000000000000008152600401610e2d9061235c565b60405180910390fd5b6001816060019015159081151581525050600260008360000160009054906101000a900473ffffffffffffffffffffffffffffffffffffffff1673ffffffffffffffffffffffffffffffffffffffff1673ffffffffffffffffffffffffffffffffffffffff16815260200190815260200160002081908060018154018082558091505060019003906000526020600020906004020160009091909190915060008201518160000160006101000a81548173ffffffffffffffffffffffffffffffffffffffff021916908373ffffffffffffffffffffffffffffffffffffffff160217905550602082015181600101556040820151816002015560608201518160030160006101000a81548160ff02191690831515021790555050507faa13962bc79c7a0bc42cb8169b1705f0a6b55cc404ffb8a589d771ca786759783334604051610f8292919061237c565b60405180910390a1505050565b60018181548110610f9f57600080fd5b90600052602060002090600602016000915090508060000160009054906101000a900473ffffffffffffffffffffffffffffffffffffffff1690806001018054610fe890611c52565b80601f016020809104026020016040519081016040528092919081815260200182805461101490611c52565b80156110615780601f1061103657610100808354040283529160200191611061565b820191906000526020600020905b81548152906001019060200180831161104457829003601f168201915b50505050509080600201805461107690611c52565b80601f01602080910402602001604051908101604052809291908181526020018280546110a290611c52565b80156110ef5780601f106110c4576101008083540402835291602001916110ef565b820191906000526020600020905b8154815290600101906020018083116110d257829003601f168201915b5050505050908060030154908060040154908060050154905086565b60606000602867ffffffffffffffff81111561112a57611129611753565b5b6040519080825280601f01601f19166020018201604052801561115c5781602001600182028036833780820191505090505b50905060005b60148110156112c457600081601361117a91906122dc565b600861118691906123a5565b6002611192919061251a565b8573ffffffffffffffffffffffffffffffffffffffff166111b39190612594565b60f81b9050600060108260f81c6111ca91906125d2565b60f81b905060008160f81c60106111e19190612603565b8360f81c6111ef9190612640565b60f81b90506111fd826112ce565b8585600261120b91906123a5565b8151811061121c5761121b611cef565b5b60200101907effffffffffffffffffffffffffffffffffffffffffffffffffffffffffffff1916908160001a905350611254816112ce565b85600186600261126491906123a5565b61126e919061223c565b8151811061127f5761127e611cef565b5b60200101907effffffffffffffffffffffffffffffffffffffffffffffffffffffffffffff1916908160001a90535050505080806112bc90612675565b915050611162565b5080915050919050565b6000600a8260f81c60ff1610156112f95760308260f81c6112ef91906126bd565b60f81b905061130f565b60578260f81c61130991906126bd565b60f81b90505b919050565b6040518060c00160405280600073ffffffffffffffffffffffffffffffffffffffff16815260200160608152602001606081526020016000815260200160008152602001600081525090565b6000604051905090565b600080fd5b600080fd5b6000819050919050565b61138781611374565b811461139257600080fd5b50565b6000813590506113a48161137e565b92915050565b6000602082840312156113c0576113bf61136a565b5b60006113ce84828501611395565b91505092915050565b600081519050919050565b600082825260208201905092915050565b60005b838110156114115780820151818401526020810190506113f6565b60008484015250505050565b6000601f19601f8301169050919050565b6000611439826113d7565b61144381856113e2565b93506114538185602086016113f3565b61145c8161141d565b840191505092915050565b60006020820190508181036000830152611481818461142e565b905092915050565b600081519050919050565b600082825260208201905092915050565b6000819050602082019050919050565b600073ffffffffffffffffffffffffffffffffffffffff82169050919050565b60006114e0826114b5565b9050919050565b6114f0816114d5565b82525050565b600082825260208201905092915050565b6000611512826113d7565b61151c81856114f6565b935061152c8185602086016113f3565b6115358161141d565b840191505092915050565b61154981611374565b82525050565b600060c08301600083015161156760008601826114e7565b506020830151848203602086015261157f8282611507565b915050604083015184820360408601526115998282611507565b91505060608301516115ae6060860182611540565b5060808301516115c16080860182611540565b5060a08301516115d460a0860182611540565b508091505092915050565b60006115eb838361154f565b905092915050565b6000602082019050919050565b600061160b82611489565b6116158185611494565b935083602082028501611627856114a5565b8060005b85811015611663578484038952815161164485826115df565b945061164f836115f3565b925060208a0199505060018101905061162b565b50829750879550505050505092915050565b6000602082019050818103600083015261168f8184611600565b905092915050565b600060c0830160008301516116af60008601826114e7565b50602083015184820360208601526116c78282611507565b915050604083015184820360408601526116e18282611507565b91505060608301516116f66060860182611540565b5060808301516117096080860182611540565b5060a083015161171c60a0860182611540565b508091505092915050565b600060208201905081810360008301526117418184611697565b905092915050565b600080fd5b600080fd5b7f4e487b7100000000000000000000000000000000000000000000000000000000600052604160045260246000fd5b61178b8261141d565b810181811067ffffffffffffffff821117156117aa576117a9611753565b5b80604052505050565b60006117bd611360565b90506117c98282611782565b919050565b600067ffffffffffffffff8211156117e9576117e8611753565b5b6117f28261141d565b9050602081019050919050565b82818337600083830152505050565b600061182161181c846117ce565b6117b3565b90508281526020810184848401111561183d5761183c61174e565b5b6118488482856117ff565b509392505050565b600082601f83011261186557611864611749565b5b813561187584826020860161180e565b91505092915050565b6000806000606084860312156118975761189661136a565b5b600084013567ffffffffffffffff8111156118b5576118b461136f565b5b6118c186828701611850565b935050602084013567ffffffffffffffff8111156118e2576118e161136f565b5b6118ee86828701611850565b92505060406118ff86828701611395565b9150509250925092565b600081519050919050565b600082825260208201905092915050565b6000819050602082019050919050565b60008115159050919050565b61194a81611935565b82525050565b60808201600082015161196660008501826114e7565b5060208201516119796020850182611540565b50604082015161198c6040850182611540565b50606082015161199f6060850182611941565b50505050565b60006119b18383611950565b60808301905092915050565b6000602082019050919050565b60006119d582611909565b6119df8185611914565b93506119ea83611925565b8060005b83811015611a1b578151611a0288826119a5565b9750611a0d836119bd565b9250506001810190506119ee565b5085935050505092915050565b60006020820190508181036000830152611a4281846119ca565b905092915050565b611a53816114d5565b82525050565b6000602082019050611a6e6000830184611a4a565b92915050565b611a7d81611374565b82525050565b6000602082019050611a986000830184611a74565b92915050565b600060c082019050611ab36000830189611a4a565b8181036020830152611ac5818861142e565b90508181036040830152611ad9818761142e565b9050611ae86060830186611a74565b611af56080830185611a74565b611b0260a0830184611a74565b979650505050505050565b7f496e76616c696420696e64657800000000000000000000000000000000000000600082015250565b6000611b43600d836113e2565b9150611b4e82611b0d565b602082019050919050565b60006020820190508181036000830152611b7281611b36565b9050919050565b600081905092915050565b7f68747470733a2f2f6578616d706c652e636f6d2f646f6e6174652f0000000000600082015250565b6000611bba601b83611b79565b9150611bc582611b84565b601b82019050919050565b6000611bdb826113d7565b611be58185611b79565b9350611bf58185602086016113f3565b80840191505092915050565b6000611c0c82611bad565b9150611c188284611bd0565b915081905092915050565b7f4e487b7100000000000000000000000000000000000000000000000000000000600052602260045260246000fd5b60006002820490506001821680611c6a57607f821691505b602082108103611c7d57611c7c611c23565b5b50919050565b7f496e76616c6964206f7267616e697a6174696f6e20696e646578000000000000600082015250565b6000611cb9601a836113e2565b9150611cc482611c83565b602082019050919050565b60006020820190508181036000830152611ce881611cac565b9050919050565b7f4e487b7100000000000000000000000000000000000000000000000000000000600052603260045260246000fd5b7f4f6e6c7920746865206f7267616e697a6174696f6e2063726561746f7220636160008201527f6e20776974686472617720746f6b656e73000000000000000000000000000000602082015250565b6000611d7a6031836113e2565b9150611d8582611d1e565b604082019050919050565b60006020820190508181036000830152611da981611d6d565b9050919050565b6000604082019050611dc56000830185611a74565b611dd26020830184611a74565b9392505050565b7f4f7267616e697a6174696f6e206e616d652063616e6e6f7420626520656d707460008201527f7900000000000000000000000000000000000000000000000000000000000000602082015250565b6000611e356021836113e2565b9150611e4082611dd9565b604082019050919050565b60006020820190508181036000830152611e6481611e28565b9050919050565b7f476f616c20616d6f756e74206d7573742062652067726561746572207468616e60008201527f2030000000000000000000000000000000000000000000000000000000000000602082015250565b6000611ec76022836113e2565b9150611ed282611e6b565b604082019050919050565b60006020820190508181036000830152611ef681611eba565b9050919050565b60008190508160005260206000209050919050565b60006020601f8301049050919050565b600082821b905092915050565b600060088302611f5f7fffffffffffffffffffffffffffffffffffffffffffffffffffffffffffffffff82611f22565b611f698683611f22565b95508019841693508086168417925050509392505050565b6000819050919050565b6000611fa6611fa1611f9c84611374565b611f81565b611374565b9050919050565b6000819050919050565b611fc083611f8b565b611fd4611fcc82611fad565b848454611f2f565b825550505050565b600090565b611fe9611fdc565b611ff4818484611fb7565b505050565b5b818110156120185761200d600082611fe1565b600181019050611ffa565b5050565b601f82111561205d5761202e81611efd565b61203784611f12565b81016020851015612046578190505b61205a61205285611f12565b830182611ff9565b50505b505050565b600082821c905092915050565b600061208060001984600802612062565b1980831691505092915050565b6000612099838361206f565b9150826002028217905092915050565b6120b2826113d7565b67ffffffffffffffff8111156120cb576120ca611753565b5b6120d58254611c52565b6120e082828561201c565b600060209050601f8311600181146121135760008415612101578287015190505b61210b858261208d565b865550612173565b601f19841661212186611efd565b60005b8281101561214957848901518255600182019150602085019450602081019050612124565b868310156121665784890151612162601f89168261206f565b8355505b6001600288020188555050505b505050505050565b7f446f6e6174696f6e20616d6f756e74206d75737420626520677265617465722060008201527f7468616e20300000000000000000000000000000000000000000000000000000602082015250565b60006121d76026836113e2565b91506121e28261217b565b604082019050919050565b60006020820190508181036000830152612206816121ca565b9050919050565b7f4e487b7100000000000000000000000000000000000000000000000000000000600052601160045260246000fd5b600061224782611374565b915061225283611374565b925082820190508082111561226a5761226961220d565b5b92915050565b7f446f6e6174696f6e206578636565647320676f616c20616d6f756e7400000000600082015250565b60006122a6601c836113e2565b91506122b182612270565b602082019050919050565b600060208201905081810360008301526122d581612299565b9050919050565b60006122e782611374565b91506122f283611374565b925082820390508181111561230a5761230961220d565b5b92915050565b7f436f6d70616e7920686173206e6f20646f6e6174696f6e000000000000000000600082015250565b60006123466017836113e2565b915061235182612310565b602082019050919050565b6000602082019050818103600083015261237581612339565b9050919050565b60006040820190506123916000830185611a4a565b61239e6020830184611a74565b9392505050565b60006123b082611374565b91506123bb83611374565b92508282026123c981611374565b915082820484148315176123e0576123df61220d565b5b5092915050565b60008160011c9050919050565b6000808291508390505b600185111561243e5780860481111561241a5761241961220d565b5b60018516156124295780820291505b8081029050612437856123e7565b94506123fe565b94509492505050565b6000826124575760019050612513565b816124655760009050612513565b816001811461247b5760028114612485576124b4565b6001915050612513565b60ff8411156124975761249661220d565b5b8360020a9150848211156124ae576124ad61220d565b5b50612513565b5060208310610133831016604e8410600b84101617156124e95782820a9050838111156124e4576124e361220d565b5b612513565b6124f684848460016123f4565b9250905081840481111561250d5761250c61220d565b5b81810290505b9392505050565b600061252582611374565b915061253083611374565b925061255d7fffffffffffffffffffffffffffffffffffffffffffffffffffffffffffffffff8484612447565b905092915050565b7f4e487b7100000000000000000000000000000000000000000000000000000000600052601260045260246000fd5b600061259f82611374565b91506125aa83611374565b9250826125ba576125b9612565565b5b828204905092915050565b600060ff82169050919050565b60006125dd826125c5565b91506125e8836125c5565b9250826125f8576125f7612565565b5b828204905092915050565b600061260e826125c5565b9150612619836125c5565b9250828202612627816125c5565b91508082146126395761263861220d565b5b5092915050565b600061264b826125c5565b9150612656836125c5565b9250828203905060ff81111561266f5761266e61220d565b5b92915050565b600061268082611374565b91507fffffffffffffffffffffffffffffffffffffffffffffffffffffffffffffffff82036126b2576126b161220d565b5b600182019050919050565b60006126c8826125c5565b91506126d3836125c5565b9250828201905060ff8111156126ec576126eb61220d565b5b9291505056fea2646970667358221220b4b5a8610a2170557d98307a07aebee20706dcc9720f6658aaa7369979b8ba5f64736f6c63430008130033",
  "linkReferences": {},
  "deployedLinkReferences": {}
}