{
  "_format": "hh-sol-artifact-1",
  "contractName": "Donate",
  "sourceName": "contracts/Donate.sol",
  "abi": [
    {
      "inputs": [
        {
          "internalType": "uint256",
          "name": "_targetAmount",
          "type": "uint256"
        }
      ],
      "stateMutability": "nonpayable",
      "type": "constructor"
    },
    {
      "inputs": [
        {
          "internalType": "string",
          "name": "_name",
          "type": "string"
        },
        {
          "internalType": "string",
          "name": "_about",
          "type": "string"
        },
        {
          "internalType": "uint256",
          "name": "_goalAmount",
          "type": "uint256"
        }
      ],
      "name": "createOrganization",
      "outputs": [],
      "stateMutability": "nonpayable",
      "type": "function"
    },
    {
      "inputs": [],
      "name": "currentAmount",
      "outputs": [
        {
          "internalType": "uint256",
          "name": "",
          "type": "uint256"
        }
      ],
      "stateMutability": "view",
      "type": "function"
    },
    {
      "inputs": [],
      "name": "getAllOrganizations",
      "outputs": [
        {
          "components": [
            {
              "internalType": "address",
              "name": "creator",
              "type": "address"
            },
            {
              "internalType": "string",
              "name": "name",
              "type": "string"
            },
            {
              "internalType": "string",
              "name": "about",
              "type": "string"
            },
            {
              "internalType": "uint256",
              "name": "goalAmount",
              "type": "uint256"
            },
            {
              "internalType": "uint256",
              "name": "currentAmount",
              "type": "uint256"
            },
            {
              "internalType": "uint256",
              "name": "createdTimestamp",
              "type": "uint256"
            }
          ],
          "internalType": "struct Donate.Organization[]",
          "name": "",
          "type": "tuple[]"
        }
      ],
      "stateMutability": "view",
      "type": "function"
    },
    {
      "inputs": [],
      "name": "getDonationLink",
      "outputs": [],
      "stateMutability": "nonpayable",
      "type": "function"
    },
    {
      "inputs": [],
      "name": "getOrganiationsCount",
      "outputs": [
        {
          "internalType": "uint256",
          "name": "",
          "type": "uint256"
        }
      ],
      "stateMutability": "view",
      "type": "function"
    },
    {
      "inputs": [
        {
          "internalType": "uint256",
          "name": "index",
          "type": "uint256"
        }
      ],
      "name": "getOrganization",
      "outputs": [
        {
          "components": [
            {
              "internalType": "address",
              "name": "creator",
              "type": "address"
            },
            {
              "internalType": "string",
              "name": "name",
              "type": "string"
            },
            {
              "internalType": "string",
              "name": "about",
              "type": "string"
            },
            {
              "internalType": "uint256",
              "name": "goalAmount",
              "type": "uint256"
            },
            {
              "internalType": "uint256",
              "name": "currentAmount",
              "type": "uint256"
            },
            {
              "internalType": "uint256",
              "name": "createdTimestamp",
              "type": "uint256"
            }
          ],
          "internalType": "struct Donate.Organization",
          "name": "",
          "type": "tuple"
        }
      ],
      "stateMutability": "view",
      "type": "function"
    },
    {
      "inputs": [
        {
          "internalType": "uint256",
          "name": "amount",
          "type": "uint256"
        },
        {
          "internalType": "address",
          "name": "add",
          "type": "address"
        }
      ],
      "name": "makeDonation",
      "outputs": [],
      "stateMutability": "nonpayable",
      "type": "function"
    },
    {
      "inputs": [
        {
          "internalType": "uint256",
          "name": "",
          "type": "uint256"
        }
      ],
      "name": "organizations",
      "outputs": [
        {
          "internalType": "address",
          "name": "creator",
          "type": "address"
        },
        {
          "internalType": "string",
          "name": "name",
          "type": "string"
        },
        {
          "internalType": "string",
          "name": "about",
          "type": "string"
        },
        {
          "internalType": "uint256",
          "name": "goalAmount",
          "type": "uint256"
        },
        {
          "internalType": "uint256",
          "name": "currentAmount",
          "type": "uint256"
        },
        {
          "internalType": "uint256",
          "name": "createdTimestamp",
          "type": "uint256"
        }
      ],
      "stateMutability": "view",
      "type": "function"
    },
    {
      "inputs": [],
      "name": "owner",
      "outputs": [
        {
          "internalType": "address",
          "name": "",
          "type": "address"
        }
      ],
      "stateMutability": "view",
      "type": "function"
    },
    {
      "inputs": [],
      "name": "receivedTokens",
      "outputs": [],
      "stateMutability": "nonpayable",
      "type": "function"
    },
    {
      "inputs": [],
      "name": "targetAmount",
      "outputs": [
        {
          "internalType": "uint256",
          "name": "",
          "type": "uint256"
        }
      ],
      "stateMutability": "view",
      "type": "function"
    },
    {
      "inputs": [],
      "name": "trackTokensReceived",
      "outputs": [],
      "stateMutability": "nonpayable",
      "type": "function"
    },
    {
      "inputs": [],
      "name": "withdrawTokens",
      "outputs": [],
      "stateMutability": "nonpayable",
      "type": "function"
    },
    {
      "inputs": [],
      "name": "withdrawnTokens",
      "outputs": [],
      "stateMutability": "nonpayable",
      "type": "function"
    }
  ],
  "bytecode": "0x60806040523480156200001157600080fd5b5060405162001518380380620015188339818101604052810190620000379190620000c5565b336000806101000a81548173ffffffffffffffffffffffffffffffffffffffff021916908373ffffffffffffffffffffffffffffffffffffffff1602179055508060018190555050620000f7565b600080fd5b6000819050919050565b6200009f816200008a565b8114620000ab57600080fd5b50565b600081519050620000bf8162000094565b92915050565b600060208284031215620000de57620000dd62000085565b5b6000620000ee84828501620000ae565b91505092915050565b61141180620001076000396000f3fe608060405234801561001057600080fd5b50600436106100ea5760003560e01c80639e8a131a1161008c578063d87d0cc011610066578063d87d0cc0146101ed578063e792dd8a146101f7578063f441b1c81461022c578063fd0108811461024a576100ea565b80639e8a131a146101a9578063a9decb36146101c7578063b22c70de146101d1576100ea565b806379a876a0116100c857806379a876a0146101475780638d8f2adb146101635780638da5cb5b1461016d578063953b8fb81461018b576100ea565b8063086ed938146100ef5780630905aa5c1461010d5780634526f69014610117575b600080fd5b6100f7610254565b6040516101049190610be8565b60405180910390f35b61011561044b565b005b610131600480360381019061012c9190610c4a565b61044d565b60405161013e9190610d07565b60405180910390f35b610161600480360381019061015c9190610e5e565b61066e565b005b61016b61079b565b005b61017561079d565b6040516101829190610ef8565b60405180910390f35b6101936107c1565b6040516101a09190610f22565b60405180910390f35b6101b16107c7565b6040516101be9190610f22565b60405180910390f35b6101cf6107d4565b005b6101eb60048036038101906101e69190610f69565b6107d6565b005b6101f56107da565b005b610211600480360381019061020c9190610c4a565b6107dc565b60405161022396959493929190610ff3565b60405180910390f35b610234610958565b6040516102419190610f22565b60405180910390f35b61025261095e565b005b60606003805480602002602001604051908101604052809291908181526020016000905b8282101561044257838290600052602060002090600602016040518060c00160405290816000820160009054906101000a900473ffffffffffffffffffffffffffffffffffffffff1673ffffffffffffffffffffffffffffffffffffffff1673ffffffffffffffffffffffffffffffffffffffff16815260200160018201805461030190611091565b80601f016020809104026020016040519081016040528092919081815260200182805461032d90611091565b801561037a5780601f1061034f5761010080835404028352916020019161037a565b820191906000526020600020905b81548152906001019060200180831161035d57829003601f168201915b5050505050815260200160028201805461039390611091565b80601f01602080910402602001604051908101604052809291908181526020018280546103bf90611091565b801561040c5780601f106103e15761010080835404028352916020019161040c565b820191906000526020600020905b8154815290600101906020018083116103ef57829003601f168201915b50505050508152602001600382015481526020016004820154815260200160058201548152505081526020019060010190610278565b50505050905090565b565b610455610960565b600380549050821061049c576040517f08c379a00000000000000000000000000000000000000000000000000000000081526004016104939061110e565b60405180910390fd5b6000600383815481106104b2576104b161112e565b5b90600052602060002090600602016040518060c00160405290816000820160009054906101000a900473ffffffffffffffffffffffffffffffffffffffff1673ffffffffffffffffffffffffffffffffffffffff1673ffffffffffffffffffffffffffffffffffffffff16815260200160018201805461053190611091565b80601f016020809104026020016040519081016040528092919081815260200182805461055d90611091565b80156105aa5780601f1061057f576101008083540402835291602001916105aa565b820191906000526020600020905b81548152906001019060200180831161058d57829003601f168201915b505050505081526020016002820180546105c390611091565b80601f01602080910402602001604051908101604052809291908181526020018280546105ef90611091565b801561063c5780601f106106115761010080835404028352916020019161063c565b820191906000526020600020905b81548152906001019060200180831161061f57829003601f168201915b505050505081526020016003820154815260200160048201548152602001600582015481525050905080915050919050565b60006040518060c0016040528060008054906101000a900473ffffffffffffffffffffffffffffffffffffffff1673ffffffffffffffffffffffffffffffffffffffff16815260200185815260200184815260200183815260200160008152602001428152509050600381908060018154018082558091505060019003906000526020600020906006020160009091909190915060008201518160000160006101000a81548173ffffffffffffffffffffffffffffffffffffffff021916908373ffffffffffffffffffffffffffffffffffffffff160217905550602082015181600101908161075e9190611309565b5060408201518160020190816107749190611309565b50606082015181600301556080820151816004015560a08201518160050155505050505050565b565b60008054906101000a900473ffffffffffffffffffffffffffffffffffffffff1681565b60015481565b6000600380549050905090565b565b5050565b565b600381815481106107ec57600080fd5b90600052602060002090600602016000915090508060000160009054906101000a900473ffffffffffffffffffffffffffffffffffffffff169080600101805461083590611091565b80601f016020809104026020016040519081016040528092919081815260200182805461086190611091565b80156108ae5780601f10610883576101008083540402835291602001916108ae565b820191906000526020600020905b81548152906001019060200180831161089157829003601f168201915b5050505050908060020180546108c390611091565b80601f01602080910402602001604051908101604052809291908181526020018280546108ef90611091565b801561093c5780601f106109115761010080835404028352916020019161093c565b820191906000526020600020905b81548152906001019060200180831161091f57829003601f168201915b5050505050908060030154908060040154908060050154905086565b60025481565b565b6040518060c00160405280600073ffffffffffffffffffffffffffffffffffffffff16815260200160608152602001606081526020016000815260200160008152602001600081525090565b600081519050919050565b600082825260208201905092915050565b6000819050602082019050919050565b600073ffffffffffffffffffffffffffffffffffffffff82169050919050565b6000610a03826109d8565b9050919050565b610a13816109f8565b82525050565b600081519050919050565b600082825260208201905092915050565b60005b83811015610a53578082015181840152602081019050610a38565b60008484015250505050565b6000601f19601f8301169050919050565b6000610a7b82610a19565b610a858185610a24565b9350610a95818560208601610a35565b610a9e81610a5f565b840191505092915050565b6000819050919050565b610abc81610aa9565b82525050565b600060c083016000830151610ada6000860182610a0a565b5060208301518482036020860152610af28282610a70565b91505060408301518482036040860152610b0c8282610a70565b9150506060830151610b216060860182610ab3565b506080830151610b346080860182610ab3565b5060a0830151610b4760a0860182610ab3565b508091505092915050565b6000610b5e8383610ac2565b905092915050565b6000602082019050919050565b6000610b7e826109ac565b610b8881856109b7565b935083602082028501610b9a856109c8565b8060005b85811015610bd65784840389528151610bb78582610b52565b9450610bc283610b66565b925060208a01995050600181019050610b9e565b50829750879550505050505092915050565b60006020820190508181036000830152610c028184610b73565b905092915050565b6000604051905090565b600080fd5b600080fd5b610c2781610aa9565b8114610c3257600080fd5b50565b600081359050610c4481610c1e565b92915050565b600060208284031215610c6057610c5f610c14565b5b6000610c6e84828501610c35565b91505092915050565b600060c083016000830151610c8f6000860182610a0a565b5060208301518482036020860152610ca78282610a70565b91505060408301518482036040860152610cc18282610a70565b9150506060830151610cd66060860182610ab3565b506080830151610ce96080860182610ab3565b5060a0830151610cfc60a0860182610ab3565b508091505092915050565b60006020820190508181036000830152610d218184610c77565b905092915050565b600080fd5b600080fd5b7f4e487b7100000000000000000000000000000000000000000000000000000000600052604160045260246000fd5b610d6b82610a5f565b810181811067ffffffffffffffff82111715610d8a57610d89610d33565b5b80604052505050565b6000610d9d610c0a565b9050610da98282610d62565b919050565b600067ffffffffffffffff821115610dc957610dc8610d33565b5b610dd282610a5f565b9050602081019050919050565b82818337600083830152505050565b6000610e01610dfc84610dae565b610d93565b905082815260208101848484011115610e1d57610e1c610d2e565b5b610e28848285610ddf565b509392505050565b600082601f830112610e4557610e44610d29565b5b8135610e55848260208601610dee565b91505092915050565b600080600060608486031215610e7757610e76610c14565b5b600084013567ffffffffffffffff811115610e9557610e94610c19565b5b610ea186828701610e30565b935050602084013567ffffffffffffffff811115610ec257610ec1610c19565b5b610ece86828701610e30565b9250506040610edf86828701610c35565b9150509250925092565b610ef2816109f8565b82525050565b6000602082019050610f0d6000830184610ee9565b92915050565b610f1c81610aa9565b82525050565b6000602082019050610f376000830184610f13565b92915050565b610f46816109f8565b8114610f5157600080fd5b50565b600081359050610f6381610f3d565b92915050565b60008060408385031215610f8057610f7f610c14565b5b6000610f8e85828601610c35565b9250506020610f9f85828601610f54565b9150509250929050565b600082825260208201905092915050565b6000610fc582610a19565b610fcf8185610fa9565b9350610fdf818560208601610a35565b610fe881610a5f565b840191505092915050565b600060c0820190506110086000830189610ee9565b818103602083015261101a8188610fba565b9050818103604083015261102e8187610fba565b905061103d6060830186610f13565b61104a6080830185610f13565b61105760a0830184610f13565b979650505050505050565b7f4e487b7100000000000000000000000000000000000000000000000000000000600052602260045260246000fd5b600060028204905060018216806110a957607f821691505b6020821081036110bc576110bb611062565b5b50919050565b7f496e76616c696420696e64657800000000000000000000000000000000000000600082015250565b60006110f8600d83610fa9565b9150611103826110c2565b602082019050919050565b60006020820190508181036000830152611127816110eb565b9050919050565b7f4e487b7100000000000000000000000000000000000000000000000000000000600052603260045260246000fd5b60008190508160005260206000209050919050565b60006020601f8301049050919050565b600082821b905092915050565b6000600883026111bf7fffffffffffffffffffffffffffffffffffffffffffffffffffffffffffffffff82611182565b6111c98683611182565b95508019841693508086168417925050509392505050565b6000819050919050565b60006112066112016111fc84610aa9565b6111e1565b610aa9565b9050919050565b6000819050919050565b611220836111eb565b61123461122c8261120d565b84845461118f565b825550505050565b600090565b61124961123c565b611254818484611217565b505050565b5b818110156112785761126d600082611241565b60018101905061125a565b5050565b601f8211156112bd5761128e8161115d565b61129784611172565b810160208510156112a6578190505b6112ba6112b285611172565b830182611259565b50505b505050565b600082821c905092915050565b60006112e0600019846008026112c2565b1980831691505092915050565b60006112f983836112cf565b9150826002028217905092915050565b61131282610a19565b67ffffffffffffffff81111561132b5761132a610d33565b5b6113358254611091565b61134082828561127c565b600060209050601f8311600181146113735760008415611361578287015190505b61136b85826112ed565b8655506113d3565b601f1984166113818661115d565b60005b828110156113a957848901518255600182019150602085019450602081019050611384565b868310156113c657848901516113c2601f8916826112cf565b8355505b6001600288020188555050505b50505050505056fea2646970667358221220edf4af7a825d02e7d1eb881389c3ddc47a72678eac1f5395821cc23ad1e951bc64736f6c63430008130033",
  "linkReferences": {},
  "deployedLinkReferences": {}
}