{
  "_format": "hh-sol-artifact-1",
  "contractName": "Donate",
  "sourceName": "contracts/Donate.sol",
  "abi": [
    {
      "inputs": [],
      "stateMutability": "nonpayable",
      "type": "constructor"
    },
    {
      "anonymous": false,
      "inputs": [
        {
          "indexed": false,
          "internalType": "address",
          "name": "donor",
          "type": "address"
        },
        {
          "indexed": false,
          "internalType": "uint256",
          "name": "amount",
          "type": "uint256"
        }
      ],
      "name": "DonationMade",
      "type": "event"
    },
    {
      "anonymous": false,
      "inputs": [
        {
          "indexed": true,
          "internalType": "address",
          "name": "recipient",
          "type": "address"
        },
        {
          "indexed": false,
          "internalType": "uint256",
          "name": "amount",
          "type": "uint256"
        },
        {
          "indexed": false,
          "internalType": "uint256",
          "name": "timestamp",
          "type": "uint256"
        }
      ],
      "name": "WithdrawalMade",
      "type": "event"
    },
    {
      "inputs": [
        {
          "internalType": "string",
          "name": "_name",
          "type": "string"
        },
        {
          "internalType": "string",
          "name": "_about",
          "type": "string"
        },
        {
          "internalType": "uint256",
          "name": "_goalAmount",
          "type": "uint256"
        }
      ],
      "name": "createOrganization",
      "outputs": [],
      "stateMutability": "nonpayable",
      "type": "function"
    },
    {
      "inputs": [],
      "name": "getAllOrganizations",
      "outputs": [
        {
          "components": [
            {
              "internalType": "address",
              "name": "creator",
              "type": "address"
            },
            {
              "internalType": "string",
              "name": "name",
              "type": "string"
            },
            {
              "internalType": "string",
              "name": "about",
              "type": "string"
            },
            {
              "internalType": "uint256",
              "name": "goalAmount",
              "type": "uint256"
            },
            {
              "internalType": "uint256",
              "name": "currentAmount",
              "type": "uint256"
            },
            {
              "internalType": "uint256",
              "name": "createdTimestamp",
              "type": "uint256"
            }
          ],
          "internalType": "struct Donate.Organization[]",
          "name": "",
          "type": "tuple[]"
        }
      ],
      "stateMutability": "view",
      "type": "function"
    },
    {
      "inputs": [],
      "name": "getOrganiationsCount",
      "outputs": [
        {
          "internalType": "uint256",
          "name": "",
          "type": "uint256"
        }
      ],
      "stateMutability": "view",
      "type": "function"
    },
    {
      "inputs": [
        {
          "internalType": "uint256",
          "name": "index",
          "type": "uint256"
        }
      ],
      "name": "getOrganization",
      "outputs": [
        {
          "components": [
            {
              "internalType": "address",
              "name": "creator",
              "type": "address"
            },
            {
              "internalType": "string",
              "name": "name",
              "type": "string"
            },
            {
              "internalType": "string",
              "name": "about",
              "type": "string"
            },
            {
              "internalType": "uint256",
              "name": "goalAmount",
              "type": "uint256"
            },
            {
              "internalType": "uint256",
              "name": "currentAmount",
              "type": "uint256"
            },
            {
              "internalType": "uint256",
              "name": "createdTimestamp",
              "type": "uint256"
            }
          ],
          "internalType": "struct Donate.Organization",
          "name": "",
          "type": "tuple"
        }
      ],
      "stateMutability": "view",
      "type": "function"
    },
    {
      "inputs": [
        {
          "internalType": "uint256",
          "name": "organizationIndex",
          "type": "uint256"
        }
      ],
      "name": "makeDonation",
      "outputs": [],
      "stateMutability": "payable",
      "type": "function"
    },
    {
      "inputs": [
        {
          "internalType": "uint256",
          "name": "",
          "type": "uint256"
        }
      ],
      "name": "organizations",
      "outputs": [
        {
          "internalType": "address",
          "name": "creator",
          "type": "address"
        },
        {
          "internalType": "string",
          "name": "name",
          "type": "string"
        },
        {
          "internalType": "string",
          "name": "about",
          "type": "string"
        },
        {
          "internalType": "uint256",
          "name": "goalAmount",
          "type": "uint256"
        },
        {
          "internalType": "uint256",
          "name": "currentAmount",
          "type": "uint256"
        },
        {
          "internalType": "uint256",
          "name": "createdTimestamp",
          "type": "uint256"
        }
      ],
      "stateMutability": "view",
      "type": "function"
    },
    {
      "inputs": [],
      "name": "owner",
      "outputs": [
        {
          "internalType": "address",
          "name": "",
          "type": "address"
        }
      ],
      "stateMutability": "view",
      "type": "function"
    },
    {
      "inputs": [],
      "name": "receivedTokens",
      "outputs": [],
      "stateMutability": "nonpayable",
      "type": "function"
    },
    {
      "inputs": [],
      "name": "trackTokensReceived",
      "outputs": [],
      "stateMutability": "nonpayable",
      "type": "function"
    },
    {
      "inputs": [
        {
          "internalType": "uint256",
          "name": "organizationIndex",
          "type": "uint256"
        }
      ],
      "name": "withdrawTokens",
      "outputs": [],
      "stateMutability": "nonpayable",
      "type": "function"
    },
    {
      "inputs": [],
      "name": "withdrawnTokens",
      "outputs": [],
      "stateMutability": "nonpayable",
      "type": "function"
    }
  ],
  "bytecode": "0x608060405234801561001057600080fd5b50336000806101000a81548173ffffffffffffffffffffffffffffffffffffffff021916908373ffffffffffffffffffffffffffffffffffffffff160217905550611996806100606000396000f3fe60806040526004361061009c5760003560e01c80638da5cb5b116100645780638da5cb5b146101725780639e8a131a1461019d578063a9decb36146101c8578063b219f916146101df578063e792dd8a146101fb578063fd0108811461023d5761009c565b8063086ed938146100a15780630905aa5c146100cc578063315a095d146100e35780634526f6901461010c57806379a876a014610149575b600080fd5b3480156100ad57600080fd5b506100b6610254565b6040516100c39190610f28565b60405180910390f35b3480156100d857600080fd5b506100e161044b565b005b3480156100ef57600080fd5b5061010a60048036038101906101059190610f8a565b61044d565b005b34801561011857600080fd5b50610133600480360381019061012e9190610f8a565b610643565b6040516101409190611047565b60405180910390f35b34801561015557600080fd5b50610170600480360381019061016b919061119e565b610864565b005b34801561017e57600080fd5b50610187610991565b6040516101949190611238565b60405180910390f35b3480156101a957600080fd5b506101b26109b5565b6040516101bf9190611262565b60405180910390f35b3480156101d457600080fd5b506101dd6109c2565b005b6101f960048036038101906101f49190610f8a565b6109c4565b005b34801561020757600080fd5b50610222600480360381019061021d9190610f8a565b610b22565b604051610234969594939291906112c7565b60405180910390f35b34801561024957600080fd5b50610252610c9e565b005b60606001805480602002602001604051908101604052809291908181526020016000905b8282101561044257838290600052602060002090600602016040518060c00160405290816000820160009054906101000a900473ffffffffffffffffffffffffffffffffffffffff1673ffffffffffffffffffffffffffffffffffffffff1673ffffffffffffffffffffffffffffffffffffffff16815260200160018201805461030190611365565b80601f016020809104026020016040519081016040528092919081815260200182805461032d90611365565b801561037a5780601f1061034f5761010080835404028352916020019161037a565b820191906000526020600020905b81548152906001019060200180831161035d57829003601f168201915b5050505050815260200160028201805461039390611365565b80601f01602080910402602001604051908101604052809291908181526020018280546103bf90611365565b801561040c5780601f106103e15761010080835404028352916020019161040c565b820191906000526020600020905b8154815290600101906020018083116103ef57829003601f168201915b50505050508152602001600382015481526020016004820154815260200160058201548152505081526020019060010190610278565b50505050905090565b565b6001805490508110610494576040517f08c379a000000000000000000000000000000000000000000000000000000000815260040161048b906113e2565b60405180910390fd5b6000600182815481106104aa576104a9611402565b5b906000526020600020906006020190503373ffffffffffffffffffffffffffffffffffffffff168160000160009054906101000a900473ffffffffffffffffffffffffffffffffffffffff1673ffffffffffffffffffffffffffffffffffffffff161461054c576040517f08c379a0000000000000000000000000000000000000000000000000000000008152600401610543906114a3565b60405180910390fd5b600081600401549050600082600401819055508160000160009054906101000a900473ffffffffffffffffffffffffffffffffffffffff1673ffffffffffffffffffffffffffffffffffffffff166108fc829081150290604051600060405180830381858888f193505050501580156105c9573d6000803e3d6000fd5b508160000160009054906101000a900473ffffffffffffffffffffffffffffffffffffffff1673ffffffffffffffffffffffffffffffffffffffff167f2d4d49c3e017b8235c908cbaa83a2431a08f3b950712696ece2088964fd399f082426040516106369291906114c3565b60405180910390a2505050565b61064b610ca0565b6001805490508210610692576040517f08c379a000000000000000000000000000000000000000000000000000000000815260040161068990611538565b60405180910390fd5b6000600183815481106106a8576106a7611402565b5b90600052602060002090600602016040518060c00160405290816000820160009054906101000a900473ffffffffffffffffffffffffffffffffffffffff1673ffffffffffffffffffffffffffffffffffffffff1673ffffffffffffffffffffffffffffffffffffffff16815260200160018201805461072790611365565b80601f016020809104026020016040519081016040528092919081815260200182805461075390611365565b80156107a05780601f10610775576101008083540402835291602001916107a0565b820191906000526020600020905b81548152906001019060200180831161078357829003601f168201915b505050505081526020016002820180546107b990611365565b80601f01602080910402602001604051908101604052809291908181526020018280546107e590611365565b80156108325780601f1061080757610100808354040283529160200191610832565b820191906000526020600020905b81548152906001019060200180831161081557829003601f168201915b505050505081526020016003820154815260200160048201548152602001600582015481525050905080915050919050565b60006040518060c0016040528060008054906101000a900473ffffffffffffffffffffffffffffffffffffffff1673ffffffffffffffffffffffffffffffffffffffff16815260200185815260200184815260200183815260200160008152602001428152509050600181908060018154018082558091505060019003906000526020600020906006020160009091909190915060008201518160000160006101000a81548173ffffffffffffffffffffffffffffffffffffffff021916908373ffffffffffffffffffffffffffffffffffffffff16021790555060208201518160010190816109549190611704565b50604082015181600201908161096a9190611704565b50606082015181600301556080820151816004015560a08201518160050155505050505050565b60008054906101000a900473ffffffffffffffffffffffffffffffffffffffff1681565b6000600180549050905090565b565b60003411610a07576040517f08c379a00000000000000000000000000000000000000000000000000000000081526004016109fe90611848565b60405180910390fd5b6001805490508110610a4e576040517f08c379a0000000000000000000000000000000000000000000000000000000008152600401610a45906113e2565b60405180910390fd5b600060018281548110610a6457610a63611402565b5b906000526020600020906006020190508060030154348260040154610a899190611897565b1115610aca576040517f08c379a0000000000000000000000000000000000000000000000000000000008152600401610ac190611917565b60405180910390fd5b34816004016000828254610ade9190611897565b925050819055507faa13962bc79c7a0bc42cb8169b1705f0a6b55cc404ffb8a589d771ca786759783334604051610b16929190611937565b60405180910390a15050565b60018181548110610b3257600080fd5b90600052602060002090600602016000915090508060000160009054906101000a900473ffffffffffffffffffffffffffffffffffffffff1690806001018054610b7b90611365565b80601f0160208091040260200160405190810160405280929190818152602001828054610ba790611365565b8015610bf45780601f10610bc957610100808354040283529160200191610bf4565b820191906000526020600020905b815481529060010190602001808311610bd757829003601f168201915b505050505090806002018054610c0990611365565b80601f0160208091040260200160405190810160405280929190818152602001828054610c3590611365565b8015610c825780601f10610c5757610100808354040283529160200191610c82565b820191906000526020600020905b815481529060010190602001808311610c6557829003601f168201915b5050505050908060030154908060040154908060050154905086565b565b6040518060c00160405280600073ffffffffffffffffffffffffffffffffffffffff16815260200160608152602001606081526020016000815260200160008152602001600081525090565b600081519050919050565b600082825260208201905092915050565b6000819050602082019050919050565b600073ffffffffffffffffffffffffffffffffffffffff82169050919050565b6000610d4382610d18565b9050919050565b610d5381610d38565b82525050565b600081519050919050565b600082825260208201905092915050565b60005b83811015610d93578082015181840152602081019050610d78565b60008484015250505050565b6000601f19601f8301169050919050565b6000610dbb82610d59565b610dc58185610d64565b9350610dd5818560208601610d75565b610dde81610d9f565b840191505092915050565b6000819050919050565b610dfc81610de9565b82525050565b600060c083016000830151610e1a6000860182610d4a565b5060208301518482036020860152610e328282610db0565b91505060408301518482036040860152610e4c8282610db0565b9150506060830151610e616060860182610df3565b506080830151610e746080860182610df3565b5060a0830151610e8760a0860182610df3565b508091505092915050565b6000610e9e8383610e02565b905092915050565b6000602082019050919050565b6000610ebe82610cec565b610ec88185610cf7565b935083602082028501610eda85610d08565b8060005b85811015610f165784840389528151610ef78582610e92565b9450610f0283610ea6565b925060208a01995050600181019050610ede565b50829750879550505050505092915050565b60006020820190508181036000830152610f428184610eb3565b905092915050565b6000604051905090565b600080fd5b600080fd5b610f6781610de9565b8114610f7257600080fd5b50565b600081359050610f8481610f5e565b92915050565b600060208284031215610fa057610f9f610f54565b5b6000610fae84828501610f75565b91505092915050565b600060c083016000830151610fcf6000860182610d4a565b5060208301518482036020860152610fe78282610db0565b915050604083015184820360408601526110018282610db0565b91505060608301516110166060860182610df3565b5060808301516110296080860182610df3565b5060a083015161103c60a0860182610df3565b508091505092915050565b600060208201905081810360008301526110618184610fb7565b905092915050565b600080fd5b600080fd5b7f4e487b7100000000000000000000000000000000000000000000000000000000600052604160045260246000fd5b6110ab82610d9f565b810181811067ffffffffffffffff821117156110ca576110c9611073565b5b80604052505050565b60006110dd610f4a565b90506110e982826110a2565b919050565b600067ffffffffffffffff82111561110957611108611073565b5b61111282610d9f565b9050602081019050919050565b82818337600083830152505050565b600061114161113c846110ee565b6110d3565b90508281526020810184848401111561115d5761115c61106e565b5b61116884828561111f565b509392505050565b600082601f83011261118557611184611069565b5b813561119584826020860161112e565b91505092915050565b6000806000606084860312156111b7576111b6610f54565b5b600084013567ffffffffffffffff8111156111d5576111d4610f59565b5b6111e186828701611170565b935050602084013567ffffffffffffffff81111561120257611201610f59565b5b61120e86828701611170565b925050604061121f86828701610f75565b9150509250925092565b61123281610d38565b82525050565b600060208201905061124d6000830184611229565b92915050565b61125c81610de9565b82525050565b60006020820190506112776000830184611253565b92915050565b600082825260208201905092915050565b600061129982610d59565b6112a3818561127d565b93506112b3818560208601610d75565b6112bc81610d9f565b840191505092915050565b600060c0820190506112dc6000830189611229565b81810360208301526112ee818861128e565b90508181036040830152611302818761128e565b90506113116060830186611253565b61131e6080830185611253565b61132b60a0830184611253565b979650505050505050565b7f4e487b7100000000000000000000000000000000000000000000000000000000600052602260045260246000fd5b6000600282049050600182168061137d57607f821691505b6020821081036113905761138f611336565b5b50919050565b7f496e76616c6964206f7267616e697a6174696f6e20696e646578000000000000600082015250565b60006113cc601a8361127d565b91506113d782611396565b602082019050919050565b600060208201905081810360008301526113fb816113bf565b9050919050565b7f4e487b7100000000000000000000000000000000000000000000000000000000600052603260045260246000fd5b7f4f6e6c7920746865206f7267616e697a6174696f6e2063726561746f7220636160008201527f6e20776974686472617720746f6b656e73000000000000000000000000000000602082015250565b600061148d60318361127d565b915061149882611431565b604082019050919050565b600060208201905081810360008301526114bc81611480565b9050919050565b60006040820190506114d86000830185611253565b6114e56020830184611253565b9392505050565b7f496e76616c696420696e64657800000000000000000000000000000000000000600082015250565b6000611522600d8361127d565b915061152d826114ec565b602082019050919050565b6000602082019050818103600083015261155181611515565b9050919050565b60008190508160005260206000209050919050565b60006020601f8301049050919050565b600082821b905092915050565b6000600883026115ba7fffffffffffffffffffffffffffffffffffffffffffffffffffffffffffffffff8261157d565b6115c4868361157d565b95508019841693508086168417925050509392505050565b6000819050919050565b60006116016115fc6115f784610de9565b6115dc565b610de9565b9050919050565b6000819050919050565b61161b836115e6565b61162f61162782611608565b84845461158a565b825550505050565b600090565b611644611637565b61164f818484611612565b505050565b5b818110156116735761166860008261163c565b600181019050611655565b5050565b601f8211156116b85761168981611558565b6116928461156d565b810160208510156116a1578190505b6116b56116ad8561156d565b830182611654565b50505b505050565b600082821c905092915050565b60006116db600019846008026116bd565b1980831691505092915050565b60006116f483836116ca565b9150826002028217905092915050565b61170d82610d59565b67ffffffffffffffff81111561172657611725611073565b5b6117308254611365565b61173b828285611677565b600060209050601f83116001811461176e576000841561175c578287015190505b61176685826116e8565b8655506117ce565b601f19841661177c86611558565b60005b828110156117a45784890151825560018201915060208501945060208101905061177f565b868310156117c157848901516117bd601f8916826116ca565b8355505b6001600288020188555050505b505050505050565b7f446f6e6174696f6e20616d6f756e74206d75737420626520677265617465722060008201527f7468616e20300000000000000000000000000000000000000000000000000000602082015250565b600061183260268361127d565b915061183d826117d6565b604082019050919050565b6000602082019050818103600083015261186181611825565b9050919050565b7f4e487b7100000000000000000000000000000000000000000000000000000000600052601160045260246000fd5b60006118a282610de9565b91506118ad83610de9565b92508282019050808211156118c5576118c4611868565b5b92915050565b7f446f6e6174696f6e206578636565647320676f616c20616d6f756e7400000000600082015250565b6000611901601c8361127d565b915061190c826118cb565b602082019050919050565b60006020820190508181036000830152611930816118f4565b9050919050565b600060408201905061194c6000830185611229565b6119596020830184611253565b939250505056fea2646970667358221220177c2c44872f0405116284c484c70f25dc1a6d5b6eef51c7c25b9d7c6cd5ac6c64736f6c63430008130033",
  "linkReferences": {},
  "deployedLinkReferences": {}
}