{"contracts/Donate.sol":{"Donate":{"abi":[{"inputs":[{"internalType":"string","name":"_name","type":"string"},{"internalType":"string","name":"_about","type":"string"},{"internalType":"uint256","name":"_goalAmount","type":"uint256"}],"name":"createOrganization","outputs":[],"stateMutability":"nonpayable","type":"function"},{"inputs":[],"name":"getAllOrganizations","outputs":[{"components":[{"internalType":"address","name":"creator","type":"address"},{"internalType":"string","name":"name","type":"string"},{"internalType":"string","name":"about","type":"string"},{"internalType":"uint256","name":"goalAmount","type":"uint256"},{"internalType":"uint256","name":"currentAmount","type":"uint256"},{"internalType":"uint256","name":"createdTimestamp","type":"uint256"}],"internalType":"struct Donate.Organization[]","name":"","type":"tuple[]"}],"stateMutability":"view","type":"function"},{"inputs":[],"name":"getDonationLink","outputs":[],"stateMutability":"nonpayable","type":"function"},{"inputs":[],"name":"getOrganiationsCount","outputs":[{"internalType":"uint256","name":"","type":"uint256"}],"stateMutability":"view","type":"function"},{"inputs":[{"internalType":"uint256","name":"index","type":"uint256"}],"name":"getOrganization","outputs":[{"components":[{"internalType":"address","name":"creator","type":"address"},{"internalType":"string","name":"name","type":"string"},{"internalType":"string","name":"about","type":"string"},{"internalType":"uint256","name":"goalAmount","type":"uint256"},{"internalType":"uint256","name":"currentAmount","type":"uint256"},{"internalType":"uint256","name":"createdTimestamp","type":"uint256"}],"internalType":"struct Donate.Organization","name":"","type":"tuple"}],"stateMutability":"view","type":"function"},{"inputs":[{"internalType":"uint256","name":"amount","type":"uint256"},{"internalType":"address","name":"add","type":"address"}],"name":"makeDonation","outputs":[],"stateMutability":"nonpayable","type":"function"},{"inputs":[{"internalType":"uint256","name":"","type":"uint256"}],"name":"organizations","outputs":[{"internalType":"address","name":"creator","type":"address"},{"internalType":"string","name":"name","type":"string"},{"internalType":"string","name":"about","type":"string"},{"internalType":"uint256","name":"goalAmount","type":"uint256"},{"internalType":"uint256","name":"currentAmount","type":"uint256"},{"internalType":"uint256","name":"createdTimestamp","type":"uint256"}],"stateMutability":"view","type":"function"},{"inputs":[],"name":"owner","outputs":[{"internalType":"address","name":"","type":"address"}],"stateMutability":"view","type":"function"},{"inputs":[],"name":"receivedTokens","outputs":[],"stateMutability":"nonpayable","type":"function"},{"inputs":[],"name":"trackTokensReceived","outputs":[],"stateMutability":"nonpayable","type":"function"},{"inputs":[],"name":"withdrawnTokens","outputs":[],"stateMutability":"nonpayable","type":"function"}],"evm":{"bytecode":{"linkReferences":{},"object":"608060405234801561001057600080fd5b5061137c806100206000396000f3fe608060405234801561001057600080fd5b50600436106100a95760003560e01c80639e8a131a116100715780639e8a131a14610140578063a9decb361461015e578063b22c70de14610168578063d87d0cc014610184578063e792dd8a1461018e578063fd010881146101c3576100a9565b8063086ed938146100ae5780630905aa5c146100cc5780634526f690146100d657806379a876a0146101065780638da5cb5b14610122575b600080fd5b6100b66101cd565b6040516100c39190610b53565b60405180910390f35b6100d46103c4565b005b6100f060048036038101906100eb9190610bb5565b6103c6565b6040516100fd9190610c72565b60405180910390f35b610120600480360381019061011b9190610dc9565b6105e7565b005b61012a610714565b6040516101379190610e63565b60405180910390f35b610148610738565b6040516101559190610e8d565b60405180910390f35b610166610745565b005b610182600480360381019061017d9190610ed4565b610747565b005b61018c61074b565b005b6101a860048036038101906101a39190610bb5565b61074d565b6040516101ba96959493929190610f5e565b60405180910390f35b6101cb6108c9565b005b60606001805480602002602001604051908101604052809291908181526020016000905b828210156103bb57838290600052602060002090600602016040518060c00160405290816000820160009054906101000a900473ffffffffffffffffffffffffffffffffffffffff1673ffffffffffffffffffffffffffffffffffffffff1673ffffffffffffffffffffffffffffffffffffffff16815260200160018201805461027a90610ffc565b80601f01602080910402602001604051908101604052809291908181526020018280546102a690610ffc565b80156102f35780601f106102c8576101008083540402835291602001916102f3565b820191906000526020600020905b8154815290600101906020018083116102d657829003601f168201915b5050505050815260200160028201805461030c90610ffc565b80601f016020809104026020016040519081016040528092919081815260200182805461033890610ffc565b80156103855780601f1061035a57610100808354040283529160200191610385565b820191906000526020600020905b81548152906001019060200180831161036857829003601f168201915b505050505081526020016003820154815260200160048201548152602001600582015481525050815260200190600101906101f1565b50505050905090565b565b6103ce6108cb565b6001805490508210610415576040517f08c379a000000000000000000000000000000000000000000000000000000000815260040161040c90611079565b60405180910390fd5b60006001838154811061042b5761042a611099565b5b90600052602060002090600602016040518060c00160405290816000820160009054906101000a900473ffffffffffffffffffffffffffffffffffffffff1673ffffffffffffffffffffffffffffffffffffffff1673ffffffffffffffffffffffffffffffffffffffff1681526020016001820180546104aa90610ffc565b80601f01602080910402602001604051908101604052809291908181526020018280546104d690610ffc565b80156105235780601f106104f857610100808354040283529160200191610523565b820191906000526020600020905b81548152906001019060200180831161050657829003601f168201915b5050505050815260200160028201805461053c90610ffc565b80601f016020809104026020016040519081016040528092919081815260200182805461056890610ffc565b80156105b55780601f1061058a576101008083540402835291602001916105b5565b820191906000526020600020905b81548152906001019060200180831161059857829003601f168201915b505050505081526020016003820154815260200160048201548152602001600582015481525050905080915050919050565b60006040518060c0016040528060008054906101000a900473ffffffffffffffffffffffffffffffffffffffff1673ffffffffffffffffffffffffffffffffffffffff16815260200185815260200184815260200183815260200160008152602001428152509050600181908060018154018082558091505060019003906000526020600020906006020160009091909190915060008201518160000160006101000a81548173ffffffffffffffffffffffffffffffffffffffff021916908373ffffffffffffffffffffffffffffffffffffffff16021790555060208201518160010190816106d79190611274565b5060408201518160020190816106ed9190611274565b50606082015181600301556080820151816004015560a08201518160050155505050505050565b60008054906101000a900473ffffffffffffffffffffffffffffffffffffffff1681565b6000600180549050905090565b565b5050565b565b6001818154811061075d57600080fd5b90600052602060002090600602016000915090508060000160009054906101000a900473ffffffffffffffffffffffffffffffffffffffff16908060010180546107a690610ffc565b80601f01602080910402602001604051908101604052809291908181526020018280546107d290610ffc565b801561081f5780601f106107f45761010080835404028352916020019161081f565b820191906000526020600020905b81548152906001019060200180831161080257829003601f168201915b50505050509080600201805461083490610ffc565b80601f016020809104026020016040519081016040528092919081815260200182805461086090610ffc565b80156108ad5780601f10610882576101008083540402835291602001916108ad565b820191906000526020600020905b81548152906001019060200180831161089057829003601f168201915b5050505050908060030154908060040154908060050154905086565b565b6040518060c00160405280600073ffffffffffffffffffffffffffffffffffffffff16815260200160608152602001606081526020016000815260200160008152602001600081525090565b600081519050919050565b600082825260208201905092915050565b6000819050602082019050919050565b600073ffffffffffffffffffffffffffffffffffffffff82169050919050565b600061096e82610943565b9050919050565b61097e81610963565b82525050565b600081519050919050565b600082825260208201905092915050565b60005b838110156109be5780820151818401526020810190506109a3565b60008484015250505050565b6000601f19601f8301169050919050565b60006109e682610984565b6109f0818561098f565b9350610a008185602086016109a0565b610a09816109ca565b840191505092915050565b6000819050919050565b610a2781610a14565b82525050565b600060c083016000830151610a456000860182610975565b5060208301518482036020860152610a5d82826109db565b91505060408301518482036040860152610a7782826109db565b9150506060830151610a8c6060860182610a1e565b506080830151610a9f6080860182610a1e565b5060a0830151610ab260a0860182610a1e565b508091505092915050565b6000610ac98383610a2d565b905092915050565b6000602082019050919050565b6000610ae982610917565b610af38185610922565b935083602082028501610b0585610933565b8060005b85811015610b415784840389528151610b228582610abd565b9450610b2d83610ad1565b925060208a01995050600181019050610b09565b50829750879550505050505092915050565b60006020820190508181036000830152610b6d8184610ade565b905092915050565b6000604051905090565b600080fd5b600080fd5b610b9281610a14565b8114610b9d57600080fd5b50565b600081359050610baf81610b89565b92915050565b600060208284031215610bcb57610bca610b7f565b5b6000610bd984828501610ba0565b91505092915050565b600060c083016000830151610bfa6000860182610975565b5060208301518482036020860152610c1282826109db565b91505060408301518482036040860152610c2c82826109db565b9150506060830151610c416060860182610a1e565b506080830151610c546080860182610a1e565b5060a0830151610c6760a0860182610a1e565b508091505092915050565b60006020820190508181036000830152610c8c8184610be2565b905092915050565b600080fd5b600080fd5b7f4e487b7100000000000000000000000000000000000000000000000000000000600052604160045260246000fd5b610cd6826109ca565b810181811067ffffffffffffffff82111715610cf557610cf4610c9e565b5b80604052505050565b6000610d08610b75565b9050610d148282610ccd565b919050565b600067ffffffffffffffff821115610d3457610d33610c9e565b5b610d3d826109ca565b9050602081019050919050565b82818337600083830152505050565b6000610d6c610d6784610d19565b610cfe565b905082815260208101848484011115610d8857610d87610c99565b5b610d93848285610d4a565b509392505050565b600082601f830112610db057610daf610c94565b5b8135610dc0848260208601610d59565b91505092915050565b600080600060608486031215610de257610de1610b7f565b5b600084013567ffffffffffffffff811115610e0057610dff610b84565b5b610e0c86828701610d9b565b935050602084013567ffffffffffffffff811115610e2d57610e2c610b84565b5b610e3986828701610d9b565b9250506040610e4a86828701610ba0565b9150509250925092565b610e5d81610963565b82525050565b6000602082019050610e786000830184610e54565b92915050565b610e8781610a14565b82525050565b6000602082019050610ea26000830184610e7e565b92915050565b610eb181610963565b8114610ebc57600080fd5b50565b600081359050610ece81610ea8565b92915050565b60008060408385031215610eeb57610eea610b7f565b5b6000610ef985828601610ba0565b9250506020610f0a85828601610ebf565b9150509250929050565b600082825260208201905092915050565b6000610f3082610984565b610f3a8185610f14565b9350610f4a8185602086016109a0565b610f53816109ca565b840191505092915050565b600060c082019050610f736000830189610e54565b8181036020830152610f858188610f25565b90508181036040830152610f998187610f25565b9050610fa86060830186610e7e565b610fb56080830185610e7e565b610fc260a0830184610e7e565b979650505050505050565b7f4e487b7100000000000000000000000000000000000000000000000000000000600052602260045260246000fd5b6000600282049050600182168061101457607f821691505b60208210810361102757611026610fcd565b5b50919050565b7f496e76616c696420696e64657800000000000000000000000000000000000000600082015250565b6000611063600d83610f14565b915061106e8261102d565b602082019050919050565b6000602082019050818103600083015261109281611056565b9050919050565b7f4e487b7100000000000000000000000000000000000000000000000000000000600052603260045260246000fd5b60008190508160005260206000209050919050565b60006020601f8301049050919050565b600082821b905092915050565b60006008830261112a7fffffffffffffffffffffffffffffffffffffffffffffffffffffffffffffffff826110ed565b61113486836110ed565b95508019841693508086168417925050509392505050565b6000819050919050565b600061117161116c61116784610a14565b61114c565b610a14565b9050919050565b6000819050919050565b61118b83611156565b61119f61119782611178565b8484546110fa565b825550505050565b600090565b6111b46111a7565b6111bf818484611182565b505050565b5b818110156111e3576111d86000826111ac565b6001810190506111c5565b5050565b601f821115611228576111f9816110c8565b611202846110dd565b81016020851015611211578190505b61122561121d856110dd565b8301826111c4565b50505b505050565b600082821c905092915050565b600061124b6000198460080261122d565b1980831691505092915050565b6000611264838361123a565b9150826002028217905092915050565b61127d82610984565b67ffffffffffffffff81111561129657611295610c9e565b5b6112a08254610ffc565b6112ab8282856111e7565b600060209050601f8311600181146112de57600084156112cc578287015190505b6112d68582611258565b86555061133e565b601f1984166112ec866110c8565b60005b82811015611314578489015182556001820191506020850194506020810190506112ef565b86831015611331578489015161132d601f89168261123a565b8355505b6001600288020188555050505b50505050505056fea264697066735822122097a8e1ca8477fedc74004ba175412762f8c9ec20923569000fe1d9f3ef098b9b64736f6c63430008130033","opcodes":"PUSH1 0x80 PUSH1 0x40 MSTORE CALLVALUE DUP1 ISZERO PUSH2 0x10 JUMPI PUSH1 0x0 DUP1 REVERT JUMPDEST POP PUSH2 0x137C DUP1 PUSH2 0x20 PUSH1 0x0 CODECOPY PUSH1 0x0 RETURN INVALID PUSH1 0x80 PUSH1 0x40 MSTORE CALLVALUE DUP1 ISZERO PUSH2 0x10 JUMPI PUSH1 0x0 DUP1 REVERT JUMPDEST POP PUSH1 0x4 CALLDATASIZE LT PUSH2 0xA9 JUMPI PUSH1 0x0 CALLDATALOAD PUSH1 0xE0 SHR DUP1 PUSH4 0x9E8A131A GT PUSH2 0x71 JUMPI DUP1 PUSH4 0x9E8A131A EQ PUSH2 0x140 JUMPI DUP1 PUSH4 0xA9DECB36 EQ PUSH2 0x15E JUMPI DUP1 PUSH4 0xB22C70DE EQ PUSH2 0x168 JUMPI DUP1 PUSH4 0xD87D0CC0 EQ PUSH2 0x184 JUMPI DUP1 PUSH4 0xE792DD8A EQ PUSH2 0x18E JUMPI DUP1 PUSH4 0xFD010881 EQ PUSH2 0x1C3 JUMPI PUSH2 0xA9 JUMP JUMPDEST DUP1 PUSH4 0x86ED938 EQ PUSH2 0xAE JUMPI DUP1 PUSH4 0x905AA5C EQ PUSH2 0xCC JUMPI DUP1 PUSH4 0x4526F690 EQ PUSH2 0xD6 JUMPI DUP1 PUSH4 0x79A876A0 EQ PUSH2 0x106 JUMPI DUP1 PUSH4 0x8DA5CB5B EQ PUSH2 0x122 JUMPI JUMPDEST PUSH1 0x0 DUP1 REVERT JUMPDEST PUSH2 0xB6 PUSH2 0x1CD JUMP JUMPDEST PUSH1 0x40 MLOAD PUSH2 0xC3 SWAP2 SWAP1 PUSH2 0xB53 JUMP JUMPDEST PUSH1 0x40 MLOAD DUP1 SWAP2 SUB SWAP1 RETURN JUMPDEST PUSH2 0xD4 PUSH2 0x3C4 JUMP JUMPDEST STOP JUMPDEST PUSH2 0xF0 PUSH1 0x4 DUP1 CALLDATASIZE SUB DUP2 ADD SWAP1 PUSH2 0xEB SWAP2 SWAP1 PUSH2 0xBB5 JUMP JUMPDEST PUSH2 0x3C6 JUMP JUMPDEST PUSH1 0x40 MLOAD PUSH2 0xFD SWAP2 SWAP1 PUSH2 0xC72 JUMP JUMPDEST PUSH1 0x40 MLOAD DUP1 SWAP2 SUB SWAP1 RETURN JUMPDEST PUSH2 0x120 PUSH1 0x4 DUP1 CALLDATASIZE SUB DUP2 ADD SWAP1 PUSH2 0x11B SWAP2 SWAP1 PUSH2 0xDC9 JUMP JUMPDEST PUSH2 0x5E7 JUMP JUMPDEST STOP JUMPDEST PUSH2 0x12A PUSH2 0x714 JUMP JUMPDEST PUSH1 0x40 MLOAD PUSH2 0x137 SWAP2 SWAP1 PUSH2 0xE63 JUMP JUMPDEST PUSH1 0x40 MLOAD DUP1 SWAP2 SUB SWAP1 RETURN JUMPDEST PUSH2 0x148 PUSH2 0x738 JUMP JUMPDEST PUSH1 0x40 MLOAD PUSH2 0x155 SWAP2 SWAP1 PUSH2 0xE8D JUMP JUMPDEST PUSH1 0x40 MLOAD DUP1 SWAP2 SUB SWAP1 RETURN JUMPDEST PUSH2 0x166 PUSH2 0x745 JUMP JUMPDEST STOP JUMPDEST PUSH2 0x182 PUSH1 0x4 DUP1 CALLDATASIZE SUB DUP2 ADD SWAP1 PUSH2 0x17D SWAP2 SWAP1 PUSH2 0xED4 JUMP JUMPDEST PUSH2 0x747 JUMP JUMPDEST STOP JUMPDEST PUSH2 0x18C PUSH2 0x74B JUMP JUMPDEST STOP JUMPDEST PUSH2 0x1A8 PUSH1 0x4 DUP1 CALLDATASIZE SUB DUP2 ADD SWAP1 PUSH2 0x1A3 SWAP2 SWAP1 PUSH2 0xBB5 JUMP JUMPDEST PUSH2 0x74D JUMP JUMPDEST PUSH1 0x40 MLOAD PUSH2 0x1BA SWAP7 SWAP6 SWAP5 SWAP4 SWAP3 SWAP2 SWAP1 PUSH2 0xF5E JUMP JUMPDEST PUSH1 0x40 MLOAD DUP1 SWAP2 SUB SWAP1 RETURN JUMPDEST PUSH2 0x1CB PUSH2 0x8C9 JUMP JUMPDEST STOP JUMPDEST PUSH1 0x60 PUSH1 0x1 DUP1 SLOAD DUP1 PUSH1 0x20 MUL PUSH1 0x20 ADD PUSH1 0x40 MLOAD SWAP1 DUP2 ADD PUSH1 0x40 MSTORE DUP1 SWAP3 SWAP2 SWAP1 DUP2 DUP2 MSTORE PUSH1 0x20 ADD PUSH1 0x0 SWAP1 JUMPDEST DUP3 DUP3 LT ISZERO PUSH2 0x3BB JUMPI DUP4 DUP3 SWAP1 PUSH1 0x0 MSTORE PUSH1 0x20 PUSH1 0x0 KECCAK256 SWAP1 PUSH1 0x6 MUL ADD PUSH1 0x40 MLOAD DUP1 PUSH1 0xC0 ADD PUSH1 0x40 MSTORE SWAP1 DUP2 PUSH1 0x0 DUP3 ADD PUSH1 0x0 SWAP1 SLOAD SWAP1 PUSH2 0x100 EXP SWAP1 DIV PUSH20 0xFFFFFFFFFFFFFFFFFFFFFFFFFFFFFFFFFFFFFFFF AND PUSH20 0xFFFFFFFFFFFFFFFFFFFFFFFFFFFFFFFFFFFFFFFF AND PUSH20 0xFFFFFFFFFFFFFFFFFFFFFFFFFFFFFFFFFFFFFFFF AND DUP2 MSTORE PUSH1 0x20 ADD PUSH1 0x1 DUP3 ADD DUP1 SLOAD PUSH2 0x27A SWAP1 PUSH2 0xFFC JUMP JUMPDEST DUP1 PUSH1 0x1F ADD PUSH1 0x20 DUP1 SWAP2 DIV MUL PUSH1 0x20 ADD PUSH1 0x40 MLOAD SWAP1 DUP2 ADD PUSH1 0x40 MSTORE DUP1 SWAP3 SWAP2 SWAP1 DUP2 DUP2 MSTORE PUSH1 0x20 ADD DUP3 DUP1 SLOAD PUSH2 0x2A6 SWAP1 PUSH2 0xFFC JUMP JUMPDEST DUP1 ISZERO PUSH2 0x2F3 JUMPI DUP1 PUSH1 0x1F LT PUSH2 0x2C8 JUMPI PUSH2 0x100 DUP1 DUP4 SLOAD DIV MUL DUP4 MSTORE SWAP2 PUSH1 0x20 ADD SWAP2 PUSH2 0x2F3 JUMP JUMPDEST DUP3 ADD SWAP2 SWAP1 PUSH1 0x0 MSTORE PUSH1 0x20 PUSH1 0x0 KECCAK256 SWAP1 JUMPDEST DUP2 SLOAD DUP2 MSTORE SWAP1 PUSH1 0x1 ADD SWAP1 PUSH1 0x20 ADD DUP1 DUP4 GT PUSH2 0x2D6 JUMPI DUP3 SWAP1 SUB PUSH1 0x1F AND DUP3 ADD SWAP2 JUMPDEST POP POP POP POP POP DUP2 MSTORE PUSH1 0x20 ADD PUSH1 0x2 DUP3 ADD DUP1 SLOAD PUSH2 0x30C SWAP1 PUSH2 0xFFC JUMP JUMPDEST DUP1 PUSH1 0x1F ADD PUSH1 0x20 DUP1 SWAP2 DIV MUL PUSH1 0x20 ADD PUSH1 0x40 MLOAD SWAP1 DUP2 ADD PUSH1 0x40 MSTORE DUP1 SWAP3 SWAP2 SWAP1 DUP2 DUP2 MSTORE PUSH1 0x20 ADD DUP3 DUP1 SLOAD PUSH2 0x338 SWAP1 PUSH2 0xFFC JUMP JUMPDEST DUP1 ISZERO PUSH2 0x385 JUMPI DUP1 PUSH1 0x1F LT PUSH2 0x35A JUMPI PUSH2 0x100 DUP1 DUP4 SLOAD DIV MUL DUP4 MSTORE SWAP2 PUSH1 0x20 ADD SWAP2 PUSH2 0x385 JUMP JUMPDEST DUP3 ADD SWAP2 SWAP1 PUSH1 0x0 MSTORE PUSH1 0x20 PUSH1 0x0 KECCAK256 SWAP1 JUMPDEST DUP2 SLOAD DUP2 MSTORE SWAP1 PUSH1 0x1 ADD SWAP1 PUSH1 0x20 ADD DUP1 DUP4 GT PUSH2 0x368 JUMPI DUP3 SWAP1 SUB PUSH1 0x1F AND DUP3 ADD SWAP2 JUMPDEST POP POP POP POP POP DUP2 MSTORE PUSH1 0x20 ADD PUSH1 0x3 DUP3 ADD SLOAD DUP2 MSTORE PUSH1 0x20 ADD PUSH1 0x4 DUP3 ADD SLOAD DUP2 MSTORE PUSH1 0x20 ADD PUSH1 0x5 DUP3 ADD SLOAD DUP2 MSTORE POP POP DUP2 MSTORE PUSH1 0x20 ADD SWAP1 PUSH1 0x1 ADD SWAP1 PUSH2 0x1F1 JUMP JUMPDEST POP POP POP POP SWAP1 POP SWAP1 JUMP JUMPDEST JUMP JUMPDEST PUSH2 0x3CE PUSH2 0x8CB JUMP JUMPDEST PUSH1 0x1 DUP1 SLOAD SWAP1 POP DUP3 LT PUSH2 0x415 JUMPI PUSH1 0x40 MLOAD PUSH32 0x8C379A000000000000000000000000000000000000000000000000000000000 DUP2 MSTORE PUSH1 0x4 ADD PUSH2 0x40C SWAP1 PUSH2 0x1079 JUMP JUMPDEST PUSH1 0x40 MLOAD DUP1 SWAP2 SUB SWAP1 REVERT JUMPDEST PUSH1 0x0 PUSH1 0x1 DUP4 DUP2 SLOAD DUP2 LT PUSH2 0x42B JUMPI PUSH2 0x42A PUSH2 0x1099 JUMP JUMPDEST JUMPDEST SWAP1 PUSH1 0x0 MSTORE PUSH1 0x20 PUSH1 0x0 KECCAK256 SWAP1 PUSH1 0x6 MUL ADD PUSH1 0x40 MLOAD DUP1 PUSH1 0xC0 ADD PUSH1 0x40 MSTORE SWAP1 DUP2 PUSH1 0x0 DUP3 ADD PUSH1 0x0 SWAP1 SLOAD SWAP1 PUSH2 0x100 EXP SWAP1 DIV PUSH20 0xFFFFFFFFFFFFFFFFFFFFFFFFFFFFFFFFFFFFFFFF AND PUSH20 0xFFFFFFFFFFFFFFFFFFFFFFFFFFFFFFFFFFFFFFFF AND PUSH20 0xFFFFFFFFFFFFFFFFFFFFFFFFFFFFFFFFFFFFFFFF AND DUP2 MSTORE PUSH1 0x20 ADD PUSH1 0x1 DUP3 ADD DUP1 SLOAD PUSH2 0x4AA SWAP1 PUSH2 0xFFC JUMP JUMPDEST DUP1 PUSH1 0x1F ADD PUSH1 0x20 DUP1 SWAP2 DIV MUL PUSH1 0x20 ADD PUSH1 0x40 MLOAD SWAP1 DUP2 ADD PUSH1 0x40 MSTORE DUP1 SWAP3 SWAP2 SWAP1 DUP2 DUP2 MSTORE PUSH1 0x20 ADD DUP3 DUP1 SLOAD PUSH2 0x4D6 SWAP1 PUSH2 0xFFC JUMP JUMPDEST DUP1 ISZERO PUSH2 0x523 JUMPI DUP1 PUSH1 0x1F LT PUSH2 0x4F8 JUMPI PUSH2 0x100 DUP1 DUP4 SLOAD DIV MUL DUP4 MSTORE SWAP2 PUSH1 0x20 ADD SWAP2 PUSH2 0x523 JUMP JUMPDEST DUP3 ADD SWAP2 SWAP1 PUSH1 0x0 MSTORE PUSH1 0x20 PUSH1 0x0 KECCAK256 SWAP1 JUMPDEST DUP2 SLOAD DUP2 MSTORE SWAP1 PUSH1 0x1 ADD SWAP1 PUSH1 0x20 ADD DUP1 DUP4 GT PUSH2 0x506 JUMPI DUP3 SWAP1 SUB PUSH1 0x1F AND DUP3 ADD SWAP2 JUMPDEST POP POP POP POP POP DUP2 MSTORE PUSH1 0x20 ADD PUSH1 0x2 DUP3 ADD DUP1 SLOAD PUSH2 0x53C SWAP1 PUSH2 0xFFC JUMP JUMPDEST DUP1 PUSH1 0x1F ADD PUSH1 0x20 DUP1 SWAP2 DIV MUL PUSH1 0x20 ADD PUSH1 0x40 MLOAD SWAP1 DUP2 ADD PUSH1 0x40 MSTORE DUP1 SWAP3 SWAP2 SWAP1 DUP2 DUP2 MSTORE PUSH1 0x20 ADD DUP3 DUP1 SLOAD PUSH2 0x568 SWAP1 PUSH2 0xFFC JUMP JUMPDEST DUP1 ISZERO PUSH2 0x5B5 JUMPI DUP1 PUSH1 0x1F LT PUSH2 0x58A JUMPI PUSH2 0x100 DUP1 DUP4 SLOAD DIV MUL DUP4 MSTORE SWAP2 PUSH1 0x20 ADD SWAP2 PUSH2 0x5B5 JUMP JUMPDEST DUP3 ADD SWAP2 SWAP1 PUSH1 0x0 MSTORE PUSH1 0x20 PUSH1 0x0 KECCAK256 SWAP1 JUMPDEST DUP2 SLOAD DUP2 MSTORE SWAP1 PUSH1 0x1 ADD SWAP1 PUSH1 0x20 ADD DUP1 DUP4 GT PUSH2 0x598 JUMPI DUP3 SWAP1 SUB PUSH1 0x1F AND DUP3 ADD SWAP2 JUMPDEST POP POP POP POP POP DUP2 MSTORE PUSH1 0x20 ADD PUSH1 0x3 DUP3 ADD SLOAD DUP2 MSTORE PUSH1 0x20 ADD PUSH1 0x4 DUP3 ADD SLOAD DUP2 MSTORE PUSH1 0x20 ADD PUSH1 0x5 DUP3 ADD SLOAD DUP2 MSTORE POP POP SWAP1 POP DUP1 SWAP2 POP POP SWAP2 SWAP1 POP JUMP JUMPDEST PUSH1 0x0 PUSH1 0x40 MLOAD DUP1 PUSH1 0xC0 ADD PUSH1 0x40 MSTORE DUP1 PUSH1 0x0 DUP1 SLOAD SWAP1 PUSH2 0x100 EXP SWAP1 DIV PUSH20 0xFFFFFFFFFFFFFFFFFFFFFFFFFFFFFFFFFFFFFFFF AND PUSH20 0xFFFFFFFFFFFFFFFFFFFFFFFFFFFFFFFFFFFFFFFF AND DUP2 MSTORE PUSH1 0x20 ADD DUP6 DUP2 MSTORE PUSH1 0x20 ADD DUP5 DUP2 MSTORE PUSH1 0x20 ADD DUP4 DUP2 MSTORE PUSH1 0x20 ADD PUSH1 0x0 DUP2 MSTORE PUSH1 0x20 ADD TIMESTAMP DUP2 MSTORE POP SWAP1 POP PUSH1 0x1 DUP2 SWAP1 DUP1 PUSH1 0x1 DUP2 SLOAD ADD DUP1 DUP3 SSTORE DUP1 SWAP2 POP POP PUSH1 0x1 SWAP1 SUB SWAP1 PUSH1 0x0 MSTORE PUSH1 0x20 PUSH1 0x0 KECCAK256 SWAP1 PUSH1 0x6 MUL ADD PUSH1 0x0 SWAP1 SWAP2 SWAP1 SWAP2 SWAP1 SWAP2 POP PUSH1 0x0 DUP3 ADD MLOAD DUP2 PUSH1 0x0 ADD PUSH1 0x0 PUSH2 0x100 EXP DUP2 SLOAD DUP2 PUSH20 0xFFFFFFFFFFFFFFFFFFFFFFFFFFFFFFFFFFFFFFFF MUL NOT AND SWAP1 DUP4 PUSH20 0xFFFFFFFFFFFFFFFFFFFFFFFFFFFFFFFFFFFFFFFF AND MUL OR SWAP1 SSTORE POP PUSH1 0x20 DUP3 ADD MLOAD DUP2 PUSH1 0x1 ADD SWAP1 DUP2 PUSH2 0x6D7 SWAP2 SWAP1 PUSH2 0x1274 JUMP JUMPDEST POP PUSH1 0x40 DUP3 ADD MLOAD DUP2 PUSH1 0x2 ADD SWAP1 DUP2 PUSH2 0x6ED SWAP2 SWAP1 PUSH2 0x1274 JUMP JUMPDEST POP PUSH1 0x60 DUP3 ADD MLOAD DUP2 PUSH1 0x3 ADD SSTORE PUSH1 0x80 DUP3 ADD MLOAD DUP2 PUSH1 0x4 ADD SSTORE PUSH1 0xA0 DUP3 ADD MLOAD DUP2 PUSH1 0x5 ADD SSTORE POP POP POP POP POP POP JUMP JUMPDEST PUSH1 0x0 DUP1 SLOAD SWAP1 PUSH2 0x100 EXP SWAP1 DIV PUSH20 0xFFFFFFFFFFFFFFFFFFFFFFFFFFFFFFFFFFFFFFFF AND DUP2 JUMP JUMPDEST PUSH1 0x0 PUSH1 0x1 DUP1 SLOAD SWAP1 POP SWAP1 POP SWAP1 JUMP JUMPDEST JUMP JUMPDEST POP POP JUMP JUMPDEST JUMP JUMPDEST PUSH1 0x1 DUP2 DUP2 SLOAD DUP2 LT PUSH2 0x75D JUMPI PUSH1 0x0 DUP1 REVERT JUMPDEST SWAP1 PUSH1 0x0 MSTORE PUSH1 0x20 PUSH1 0x0 KECCAK256 SWAP1 PUSH1 0x6 MUL ADD PUSH1 0x0 SWAP2 POP SWAP1 POP DUP1 PUSH1 0x0 ADD PUSH1 0x0 SWAP1 SLOAD SWAP1 PUSH2 0x100 EXP SWAP1 DIV PUSH20 0xFFFFFFFFFFFFFFFFFFFFFFFFFFFFFFFFFFFFFFFF AND SWAP1 DUP1 PUSH1 0x1 ADD DUP1 SLOAD PUSH2 0x7A6 SWAP1 PUSH2 0xFFC JUMP JUMPDEST DUP1 PUSH1 0x1F ADD PUSH1 0x20 DUP1 SWAP2 DIV MUL PUSH1 0x20 ADD PUSH1 0x40 MLOAD SWAP1 DUP2 ADD PUSH1 0x40 MSTORE DUP1 SWAP3 SWAP2 SWAP1 DUP2 DUP2 MSTORE PUSH1 0x20 ADD DUP3 DUP1 SLOAD PUSH2 0x7D2 SWAP1 PUSH2 0xFFC JUMP JUMPDEST DUP1 ISZERO PUSH2 0x81F JUMPI DUP1 PUSH1 0x1F LT PUSH2 0x7F4 JUMPI PUSH2 0x100 DUP1 DUP4 SLOAD DIV MUL DUP4 MSTORE SWAP2 PUSH1 0x20 ADD SWAP2 PUSH2 0x81F JUMP JUMPDEST DUP3 ADD SWAP2 SWAP1 PUSH1 0x0 MSTORE PUSH1 0x20 PUSH1 0x0 KECCAK256 SWAP1 JUMPDEST DUP2 SLOAD DUP2 MSTORE SWAP1 PUSH1 0x1 ADD SWAP1 PUSH1 0x20 ADD DUP1 DUP4 GT PUSH2 0x802 JUMPI DUP3 SWAP1 SUB PUSH1 0x1F AND DUP3 ADD SWAP2 JUMPDEST POP POP POP POP POP SWAP1 DUP1 PUSH1 0x2 ADD DUP1 SLOAD PUSH2 0x834 SWAP1 PUSH2 0xFFC JUMP JUMPDEST DUP1 PUSH1 0x1F ADD PUSH1 0x20 DUP1 SWAP2 DIV MUL PUSH1 0x20 ADD PUSH1 0x40 MLOAD SWAP1 DUP2 ADD PUSH1 0x40 MSTORE DUP1 SWAP3 SWAP2 SWAP1 DUP2 DUP2 MSTORE PUSH1 0x20 ADD DUP3 DUP1 SLOAD PUSH2 0x860 SWAP1 PUSH2 0xFFC JUMP JUMPDEST DUP1 ISZERO PUSH2 0x8AD JUMPI DUP1 PUSH1 0x1F LT PUSH2 0x882 JUMPI PUSH2 0x100 DUP1 DUP4 SLOAD DIV MUL DUP4 MSTORE SWAP2 PUSH1 0x20 ADD SWAP2 PUSH2 0x8AD JUMP JUMPDEST DUP3 ADD SWAP2 SWAP1 PUSH1 0x0 MSTORE PUSH1 0x20 PUSH1 0x0 KECCAK256 SWAP1 JUMPDEST DUP2 SLOAD DUP2 MSTORE SWAP1 PUSH1 0x1 ADD SWAP1 PUSH1 0x20 ADD DUP1 DUP4 GT PUSH2 0x890 JUMPI DUP3 SWAP1 SUB PUSH1 0x1F AND DUP3 ADD SWAP2 JUMPDEST POP POP POP POP POP SWAP1 DUP1 PUSH1 0x3 ADD SLOAD SWAP1 DUP1 PUSH1 0x4 ADD SLOAD SWAP1 DUP1 PUSH1 0x5 ADD SLOAD SWAP1 POP DUP7 JUMP JUMPDEST JUMP JUMPDEST PUSH1 0x40 MLOAD DUP1 PUSH1 0xC0 ADD PUSH1 0x40 MSTORE DUP1 PUSH1 0x0 PUSH20 0xFFFFFFFFFFFFFFFFFFFFFFFFFFFFFFFFFFFFFFFF AND DUP2 MSTORE PUSH1 0x20 ADD PUSH1 0x60 DUP2 MSTORE PUSH1 0x20 ADD PUSH1 0x60 DUP2 MSTORE PUSH1 0x20 ADD PUSH1 0x0 DUP2 MSTORE PUSH1 0x20 ADD PUSH1 0x0 DUP2 MSTORE PUSH1 0x20 ADD PUSH1 0x0 DUP2 MSTORE POP SWAP1 JUMP JUMPDEST PUSH1 0x0 DUP2 MLOAD SWAP1 POP SWAP2 SWAP1 POP JUMP JUMPDEST PUSH1 0x0 DUP3 DUP3 MSTORE PUSH1 0x20 DUP3 ADD SWAP1 POP SWAP3 SWAP2 POP POP JUMP JUMPDEST PUSH1 0x0 DUP2 SWAP1 POP PUSH1 0x20 DUP3 ADD SWAP1 POP SWAP2 SWAP1 POP JUMP JUMPDEST PUSH1 0x0 PUSH20 0xFFFFFFFFFFFFFFFFFFFFFFFFFFFFFFFFFFFFFFFF DUP3 AND SWAP1 POP SWAP2 SWAP1 POP JUMP JUMPDEST PUSH1 0x0 PUSH2 0x96E DUP3 PUSH2 0x943 JUMP JUMPDEST SWAP1 POP SWAP2 SWAP1 POP JUMP JUMPDEST PUSH2 0x97E DUP2 PUSH2 0x963 JUMP JUMPDEST DUP3 MSTORE POP POP JUMP JUMPDEST PUSH1 0x0 DUP2 MLOAD SWAP1 POP SWAP2 SWAP1 POP JUMP JUMPDEST PUSH1 0x0 DUP3 DUP3 MSTORE PUSH1 0x20 DUP3 ADD SWAP1 POP SWAP3 SWAP2 POP POP JUMP JUMPDEST PUSH1 0x0 JUMPDEST DUP4 DUP2 LT ISZERO PUSH2 0x9BE JUMPI DUP1 DUP3 ADD MLOAD DUP2 DUP5 ADD MSTORE PUSH1 0x20 DUP2 ADD SWAP1 POP PUSH2 0x9A3 JUMP JUMPDEST PUSH1 0x0 DUP5 DUP5 ADD MSTORE POP POP POP POP JUMP JUMPDEST PUSH1 0x0 PUSH1 0x1F NOT PUSH1 0x1F DUP4 ADD AND SWAP1 POP SWAP2 SWAP1 POP JUMP JUMPDEST PUSH1 0x0 PUSH2 0x9E6 DUP3 PUSH2 0x984 JUMP JUMPDEST PUSH2 0x9F0 DUP2 DUP6 PUSH2 0x98F JUMP JUMPDEST SWAP4 POP PUSH2 0xA00 DUP2 DUP6 PUSH1 0x20 DUP7 ADD PUSH2 0x9A0 JUMP JUMPDEST PUSH2 0xA09 DUP2 PUSH2 0x9CA JUMP JUMPDEST DUP5 ADD SWAP2 POP POP SWAP3 SWAP2 POP POP JUMP JUMPDEST PUSH1 0x0 DUP2 SWAP1 POP SWAP2 SWAP1 POP JUMP JUMPDEST PUSH2 0xA27 DUP2 PUSH2 0xA14 JUMP JUMPDEST DUP3 MSTORE POP POP JUMP JUMPDEST PUSH1 0x0 PUSH1 0xC0 DUP4 ADD PUSH1 0x0 DUP4 ADD MLOAD PUSH2 0xA45 PUSH1 0x0 DUP7 ADD DUP3 PUSH2 0x975 JUMP JUMPDEST POP PUSH1 0x20 DUP4 ADD MLOAD DUP5 DUP3 SUB PUSH1 0x20 DUP7 ADD MSTORE PUSH2 0xA5D DUP3 DUP3 PUSH2 0x9DB JUMP JUMPDEST SWAP2 POP POP PUSH1 0x40 DUP4 ADD MLOAD DUP5 DUP3 SUB PUSH1 0x40 DUP7 ADD MSTORE PUSH2 0xA77 DUP3 DUP3 PUSH2 0x9DB JUMP JUMPDEST SWAP2 POP POP PUSH1 0x60 DUP4 ADD MLOAD PUSH2 0xA8C PUSH1 0x60 DUP7 ADD DUP3 PUSH2 0xA1E JUMP JUMPDEST POP PUSH1 0x80 DUP4 ADD MLOAD PUSH2 0xA9F PUSH1 0x80 DUP7 ADD DUP3 PUSH2 0xA1E JUMP JUMPDEST POP PUSH1 0xA0 DUP4 ADD MLOAD PUSH2 0xAB2 PUSH1 0xA0 DUP7 ADD DUP3 PUSH2 0xA1E JUMP JUMPDEST POP DUP1 SWAP2 POP POP SWAP3 SWAP2 POP POP JUMP JUMPDEST PUSH1 0x0 PUSH2 0xAC9 DUP4 DUP4 PUSH2 0xA2D JUMP JUMPDEST SWAP1 POP SWAP3 SWAP2 POP POP JUMP JUMPDEST PUSH1 0x0 PUSH1 0x20 DUP3 ADD SWAP1 POP SWAP2 SWAP1 POP JUMP JUMPDEST PUSH1 0x0 PUSH2 0xAE9 DUP3 PUSH2 0x917 JUMP JUMPDEST PUSH2 0xAF3 DUP2 DUP6 PUSH2 0x922 JUMP JUMPDEST SWAP4 POP DUP4 PUSH1 0x20 DUP3 MUL DUP6 ADD PUSH2 0xB05 DUP6 PUSH2 0x933 JUMP JUMPDEST DUP1 PUSH1 0x0 JUMPDEST DUP6 DUP2 LT ISZERO PUSH2 0xB41 JUMPI DUP5 DUP5 SUB DUP10 MSTORE DUP2 MLOAD PUSH2 0xB22 DUP6 DUP3 PUSH2 0xABD JUMP JUMPDEST SWAP5 POP PUSH2 0xB2D DUP4 PUSH2 0xAD1 JUMP JUMPDEST SWAP3 POP PUSH1 0x20 DUP11 ADD SWAP10 POP POP PUSH1 0x1 DUP2 ADD SWAP1 POP PUSH2 0xB09 JUMP JUMPDEST POP DUP3 SWAP8 POP DUP8 SWAP6 POP POP POP POP POP POP SWAP3 SWAP2 POP POP JUMP JUMPDEST PUSH1 0x0 PUSH1 0x20 DUP3 ADD SWAP1 POP DUP2 DUP2 SUB PUSH1 0x0 DUP4 ADD MSTORE PUSH2 0xB6D DUP2 DUP5 PUSH2 0xADE JUMP JUMPDEST SWAP1 POP SWAP3 SWAP2 POP POP JUMP JUMPDEST PUSH1 0x0 PUSH1 0x40 MLOAD SWAP1 POP SWAP1 JUMP JUMPDEST PUSH1 0x0 DUP1 REVERT JUMPDEST PUSH1 0x0 DUP1 REVERT JUMPDEST PUSH2 0xB92 DUP2 PUSH2 0xA14 JUMP JUMPDEST DUP2 EQ PUSH2 0xB9D JUMPI PUSH1 0x0 DUP1 REVERT JUMPDEST POP JUMP JUMPDEST PUSH1 0x0 DUP2 CALLDATALOAD SWAP1 POP PUSH2 0xBAF DUP2 PUSH2 0xB89 JUMP JUMPDEST SWAP3 SWAP2 POP POP JUMP JUMPDEST PUSH1 0x0 PUSH1 0x20 DUP3 DUP5 SUB SLT ISZERO PUSH2 0xBCB JUMPI PUSH2 0xBCA PUSH2 0xB7F JUMP JUMPDEST JUMPDEST PUSH1 0x0 PUSH2 0xBD9 DUP5 DUP3 DUP6 ADD PUSH2 0xBA0 JUMP JUMPDEST SWAP2 POP POP SWAP3 SWAP2 POP POP JUMP JUMPDEST PUSH1 0x0 PUSH1 0xC0 DUP4 ADD PUSH1 0x0 DUP4 ADD MLOAD PUSH2 0xBFA PUSH1 0x0 DUP7 ADD DUP3 PUSH2 0x975 JUMP JUMPDEST POP PUSH1 0x20 DUP4 ADD MLOAD DUP5 DUP3 SUB PUSH1 0x20 DUP7 ADD MSTORE PUSH2 0xC12 DUP3 DUP3 PUSH2 0x9DB JUMP JUMPDEST SWAP2 POP POP PUSH1 0x40 DUP4 ADD MLOAD DUP5 DUP3 SUB PUSH1 0x40 DUP7 ADD MSTORE PUSH2 0xC2C DUP3 DUP3 PUSH2 0x9DB JUMP JUMPDEST SWAP2 POP POP PUSH1 0x60 DUP4 ADD MLOAD PUSH2 0xC41 PUSH1 0x60 DUP7 ADD DUP3 PUSH2 0xA1E JUMP JUMPDEST POP PUSH1 0x80 DUP4 ADD MLOAD PUSH2 0xC54 PUSH1 0x80 DUP7 ADD DUP3 PUSH2 0xA1E JUMP JUMPDEST POP PUSH1 0xA0 DUP4 ADD MLOAD PUSH2 0xC67 PUSH1 0xA0 DUP7 ADD DUP3 PUSH2 0xA1E JUMP JUMPDEST POP DUP1 SWAP2 POP POP SWAP3 SWAP2 POP POP JUMP JUMPDEST PUSH1 0x0 PUSH1 0x20 DUP3 ADD SWAP1 POP DUP2 DUP2 SUB PUSH1 0x0 DUP4 ADD MSTORE PUSH2 0xC8C DUP2 DUP5 PUSH2 0xBE2 JUMP JUMPDEST SWAP1 POP SWAP3 SWAP2 POP POP JUMP JUMPDEST PUSH1 0x0 DUP1 REVERT JUMPDEST PUSH1 0x0 DUP1 REVERT JUMPDEST PUSH32 0x4E487B7100000000000000000000000000000000000000000000000000000000 PUSH1 0x0 MSTORE PUSH1 0x41 PUSH1 0x4 MSTORE PUSH1 0x24 PUSH1 0x0 REVERT JUMPDEST PUSH2 0xCD6 DUP3 PUSH2 0x9CA JUMP JUMPDEST DUP2 ADD DUP2 DUP2 LT PUSH8 0xFFFFFFFFFFFFFFFF DUP3 GT OR ISZERO PUSH2 0xCF5 JUMPI PUSH2 0xCF4 PUSH2 0xC9E JUMP JUMPDEST JUMPDEST DUP1 PUSH1 0x40 MSTORE POP POP POP JUMP JUMPDEST PUSH1 0x0 PUSH2 0xD08 PUSH2 0xB75 JUMP JUMPDEST SWAP1 POP PUSH2 0xD14 DUP3 DUP3 PUSH2 0xCCD JUMP JUMPDEST SWAP2 SWAP1 POP JUMP JUMPDEST PUSH1 0x0 PUSH8 0xFFFFFFFFFFFFFFFF DUP3 GT ISZERO PUSH2 0xD34 JUMPI PUSH2 0xD33 PUSH2 0xC9E JUMP JUMPDEST JUMPDEST PUSH2 0xD3D DUP3 PUSH2 0x9CA JUMP JUMPDEST SWAP1 POP PUSH1 0x20 DUP2 ADD SWAP1 POP SWAP2 SWAP1 POP JUMP JUMPDEST DUP3 DUP2 DUP4 CALLDATACOPY PUSH1 0x0 DUP4 DUP4 ADD MSTORE POP POP POP JUMP JUMPDEST PUSH1 0x0 PUSH2 0xD6C PUSH2 0xD67 DUP5 PUSH2 0xD19 JUMP JUMPDEST PUSH2 0xCFE JUMP JUMPDEST SWAP1 POP DUP3 DUP2 MSTORE PUSH1 0x20 DUP2 ADD DUP5 DUP5 DUP5 ADD GT ISZERO PUSH2 0xD88 JUMPI PUSH2 0xD87 PUSH2 0xC99 JUMP JUMPDEST JUMPDEST PUSH2 0xD93 DUP5 DUP3 DUP6 PUSH2 0xD4A JUMP JUMPDEST POP SWAP4 SWAP3 POP POP POP JUMP JUMPDEST PUSH1 0x0 DUP3 PUSH1 0x1F DUP4 ADD SLT PUSH2 0xDB0 JUMPI PUSH2 0xDAF PUSH2 0xC94 JUMP JUMPDEST JUMPDEST DUP2 CALLDATALOAD PUSH2 0xDC0 DUP5 DUP3 PUSH1 0x20 DUP7 ADD PUSH2 0xD59 JUMP JUMPDEST SWAP2 POP POP SWAP3 SWAP2 POP POP JUMP JUMPDEST PUSH1 0x0 DUP1 PUSH1 0x0 PUSH1 0x60 DUP5 DUP7 SUB SLT ISZERO PUSH2 0xDE2 JUMPI PUSH2 0xDE1 PUSH2 0xB7F JUMP JUMPDEST JUMPDEST PUSH1 0x0 DUP5 ADD CALLDATALOAD PUSH8 0xFFFFFFFFFFFFFFFF DUP2 GT ISZERO PUSH2 0xE00 JUMPI PUSH2 0xDFF PUSH2 0xB84 JUMP JUMPDEST JUMPDEST PUSH2 0xE0C DUP7 DUP3 DUP8 ADD PUSH2 0xD9B JUMP JUMPDEST SWAP4 POP POP PUSH1 0x20 DUP5 ADD CALLDATALOAD PUSH8 0xFFFFFFFFFFFFFFFF DUP2 GT ISZERO PUSH2 0xE2D JUMPI PUSH2 0xE2C PUSH2 0xB84 JUMP JUMPDEST JUMPDEST PUSH2 0xE39 DUP7 DUP3 DUP8 ADD PUSH2 0xD9B JUMP JUMPDEST SWAP3 POP POP PUSH1 0x40 PUSH2 0xE4A DUP7 DUP3 DUP8 ADD PUSH2 0xBA0 JUMP JUMPDEST SWAP2 POP POP SWAP3 POP SWAP3 POP SWAP3 JUMP JUMPDEST PUSH2 0xE5D DUP2 PUSH2 0x963 JUMP JUMPDEST DUP3 MSTORE POP POP JUMP JUMPDEST PUSH1 0x0 PUSH1 0x20 DUP3 ADD SWAP1 POP PUSH2 0xE78 PUSH1 0x0 DUP4 ADD DUP5 PUSH2 0xE54 JUMP JUMPDEST SWAP3 SWAP2 POP POP JUMP JUMPDEST PUSH2 0xE87 DUP2 PUSH2 0xA14 JUMP JUMPDEST DUP3 MSTORE POP POP JUMP JUMPDEST PUSH1 0x0 PUSH1 0x20 DUP3 ADD SWAP1 POP PUSH2 0xEA2 PUSH1 0x0 DUP4 ADD DUP5 PUSH2 0xE7E JUMP JUMPDEST SWAP3 SWAP2 POP POP JUMP JUMPDEST PUSH2 0xEB1 DUP2 PUSH2 0x963 JUMP JUMPDEST DUP2 EQ PUSH2 0xEBC JUMPI PUSH1 0x0 DUP1 REVERT JUMPDEST POP JUMP JUMPDEST PUSH1 0x0 DUP2 CALLDATALOAD SWAP1 POP PUSH2 0xECE DUP2 PUSH2 0xEA8 JUMP JUMPDEST SWAP3 SWAP2 POP POP JUMP JUMPDEST PUSH1 0x0 DUP1 PUSH1 0x40 DUP4 DUP6 SUB SLT ISZERO PUSH2 0xEEB JUMPI PUSH2 0xEEA PUSH2 0xB7F JUMP JUMPDEST JUMPDEST PUSH1 0x0 PUSH2 0xEF9 DUP6 DUP3 DUP7 ADD PUSH2 0xBA0 JUMP JUMPDEST SWAP3 POP POP PUSH1 0x20 PUSH2 0xF0A DUP6 DUP3 DUP7 ADD PUSH2 0xEBF JUMP JUMPDEST SWAP2 POP POP SWAP3 POP SWAP3 SWAP1 POP JUMP JUMPDEST PUSH1 0x0 DUP3 DUP3 MSTORE PUSH1 0x20 DUP3 ADD SWAP1 POP SWAP3 SWAP2 POP POP JUMP JUMPDEST PUSH1 0x0 PUSH2 0xF30 DUP3 PUSH2 0x984 JUMP JUMPDEST PUSH2 0xF3A DUP2 DUP6 PUSH2 0xF14 JUMP JUMPDEST SWAP4 POP PUSH2 0xF4A DUP2 DUP6 PUSH1 0x20 DUP7 ADD PUSH2 0x9A0 JUMP JUMPDEST PUSH2 0xF53 DUP2 PUSH2 0x9CA JUMP JUMPDEST DUP5 ADD SWAP2 POP POP SWAP3 SWAP2 POP POP JUMP JUMPDEST PUSH1 0x0 PUSH1 0xC0 DUP3 ADD SWAP1 POP PUSH2 0xF73 PUSH1 0x0 DUP4 ADD DUP10 PUSH2 0xE54 JUMP JUMPDEST DUP2 DUP2 SUB PUSH1 0x20 DUP4 ADD MSTORE PUSH2 0xF85 DUP2 DUP9 PUSH2 0xF25 JUMP JUMPDEST SWAP1 POP DUP2 DUP2 SUB PUSH1 0x40 DUP4 ADD MSTORE PUSH2 0xF99 DUP2 DUP8 PUSH2 0xF25 JUMP JUMPDEST SWAP1 POP PUSH2 0xFA8 PUSH1 0x60 DUP4 ADD DUP7 PUSH2 0xE7E JUMP JUMPDEST PUSH2 0xFB5 PUSH1 0x80 DUP4 ADD DUP6 PUSH2 0xE7E JUMP JUMPDEST PUSH2 0xFC2 PUSH1 0xA0 DUP4 ADD DUP5 PUSH2 0xE7E JUMP JUMPDEST SWAP8 SWAP7 POP POP POP POP POP POP POP JUMP JUMPDEST PUSH32 0x4E487B7100000000000000000000000000000000000000000000000000000000 PUSH1 0x0 MSTORE PUSH1 0x22 PUSH1 0x4 MSTORE PUSH1 0x24 PUSH1 0x0 REVERT JUMPDEST PUSH1 0x0 PUSH1 0x2 DUP3 DIV SWAP1 POP PUSH1 0x1 DUP3 AND DUP1 PUSH2 0x1014 JUMPI PUSH1 0x7F DUP3 AND SWAP2 POP JUMPDEST PUSH1 0x20 DUP3 LT DUP2 SUB PUSH2 0x1027 JUMPI PUSH2 0x1026 PUSH2 0xFCD JUMP JUMPDEST JUMPDEST POP SWAP2 SWAP1 POP JUMP JUMPDEST PUSH32 0x496E76616C696420696E64657800000000000000000000000000000000000000 PUSH1 0x0 DUP3 ADD MSTORE POP JUMP JUMPDEST PUSH1 0x0 PUSH2 0x1063 PUSH1 0xD DUP4 PUSH2 0xF14 JUMP JUMPDEST SWAP2 POP PUSH2 0x106E DUP3 PUSH2 0x102D JUMP JUMPDEST PUSH1 0x20 DUP3 ADD SWAP1 POP SWAP2 SWAP1 POP JUMP JUMPDEST PUSH1 0x0 PUSH1 0x20 DUP3 ADD SWAP1 POP DUP2 DUP2 SUB PUSH1 0x0 DUP4 ADD MSTORE PUSH2 0x1092 DUP2 PUSH2 0x1056 JUMP JUMPDEST SWAP1 POP SWAP2 SWAP1 POP JUMP JUMPDEST PUSH32 0x4E487B7100000000000000000000000000000000000000000000000000000000 PUSH1 0x0 MSTORE PUSH1 0x32 PUSH1 0x4 MSTORE PUSH1 0x24 PUSH1 0x0 REVERT JUMPDEST PUSH1 0x0 DUP2 SWAP1 POP DUP2 PUSH1 0x0 MSTORE PUSH1 0x20 PUSH1 0x0 KECCAK256 SWAP1 POP SWAP2 SWAP1 POP JUMP JUMPDEST PUSH1 0x0 PUSH1 0x20 PUSH1 0x1F DUP4 ADD DIV SWAP1 POP SWAP2 SWAP1 POP JUMP JUMPDEST PUSH1 0x0 DUP3 DUP3 SHL SWAP1 POP SWAP3 SWAP2 POP POP JUMP JUMPDEST PUSH1 0x0 PUSH1 0x8 DUP4 MUL PUSH2 0x112A PUSH32 0xFFFFFFFFFFFFFFFFFFFFFFFFFFFFFFFFFFFFFFFFFFFFFFFFFFFFFFFFFFFFFFFF DUP3 PUSH2 0x10ED JUMP JUMPDEST PUSH2 0x1134 DUP7 DUP4 PUSH2 0x10ED JUMP JUMPDEST SWAP6 POP DUP1 NOT DUP5 AND SWAP4 POP DUP1 DUP7 AND DUP5 OR SWAP3 POP POP POP SWAP4 SWAP3 POP POP POP JUMP JUMPDEST PUSH1 0x0 DUP2 SWAP1 POP SWAP2 SWAP1 POP JUMP JUMPDEST PUSH1 0x0 PUSH2 0x1171 PUSH2 0x116C PUSH2 0x1167 DUP5 PUSH2 0xA14 JUMP JUMPDEST PUSH2 0x114C JUMP JUMPDEST PUSH2 0xA14 JUMP JUMPDEST SWAP1 POP SWAP2 SWAP1 POP JUMP JUMPDEST PUSH1 0x0 DUP2 SWAP1 POP SWAP2 SWAP1 POP JUMP JUMPDEST PUSH2 0x118B DUP4 PUSH2 0x1156 JUMP JUMPDEST PUSH2 0x119F PUSH2 0x1197 DUP3 PUSH2 0x1178 JUMP JUMPDEST DUP5 DUP5 SLOAD PUSH2 0x10FA JUMP JUMPDEST DUP3 SSTORE POP POP POP POP JUMP JUMPDEST PUSH1 0x0 SWAP1 JUMP JUMPDEST PUSH2 0x11B4 PUSH2 0x11A7 JUMP JUMPDEST PUSH2 0x11BF DUP2 DUP5 DUP5 PUSH2 0x1182 JUMP JUMPDEST POP POP POP JUMP JUMPDEST JUMPDEST DUP2 DUP2 LT ISZERO PUSH2 0x11E3 JUMPI PUSH2 0x11D8 PUSH1 0x0 DUP3 PUSH2 0x11AC JUMP JUMPDEST PUSH1 0x1 DUP2 ADD SWAP1 POP PUSH2 0x11C5 JUMP JUMPDEST POP POP JUMP JUMPDEST PUSH1 0x1F DUP3 GT ISZERO PUSH2 0x1228 JUMPI PUSH2 0x11F9 DUP2 PUSH2 0x10C8 JUMP JUMPDEST PUSH2 0x1202 DUP5 PUSH2 0x10DD JUMP JUMPDEST DUP2 ADD PUSH1 0x20 DUP6 LT ISZERO PUSH2 0x1211 JUMPI DUP2 SWAP1 POP JUMPDEST PUSH2 0x1225 PUSH2 0x121D DUP6 PUSH2 0x10DD JUMP JUMPDEST DUP4 ADD DUP3 PUSH2 0x11C4 JUMP JUMPDEST POP POP JUMPDEST POP POP POP JUMP JUMPDEST PUSH1 0x0 DUP3 DUP3 SHR SWAP1 POP SWAP3 SWAP2 POP POP JUMP JUMPDEST PUSH1 0x0 PUSH2 0x124B PUSH1 0x0 NOT DUP5 PUSH1 0x8 MUL PUSH2 0x122D JUMP JUMPDEST NOT DUP1 DUP4 AND SWAP2 POP POP SWAP3 SWAP2 POP POP JUMP JUMPDEST PUSH1 0x0 PUSH2 0x1264 DUP4 DUP4 PUSH2 0x123A JUMP JUMPDEST SWAP2 POP DUP3 PUSH1 0x2 MUL DUP3 OR SWAP1 POP SWAP3 SWAP2 POP POP JUMP JUMPDEST PUSH2 0x127D DUP3 PUSH2 0x984 JUMP JUMPDEST PUSH8 0xFFFFFFFFFFFFFFFF DUP2 GT ISZERO PUSH2 0x1296 JUMPI PUSH2 0x1295 PUSH2 0xC9E JUMP JUMPDEST JUMPDEST PUSH2 0x12A0 DUP3 SLOAD PUSH2 0xFFC JUMP JUMPDEST PUSH2 0x12AB DUP3 DUP3 DUP6 PUSH2 0x11E7 JUMP JUMPDEST PUSH1 0x0 PUSH1 0x20 SWAP1 POP PUSH1 0x1F DUP4 GT PUSH1 0x1 DUP2 EQ PUSH2 0x12DE JUMPI PUSH1 0x0 DUP5 ISZERO PUSH2 0x12CC JUMPI DUP3 DUP8 ADD MLOAD SWAP1 POP JUMPDEST PUSH2 0x12D6 DUP6 DUP3 PUSH2 0x1258 JUMP JUMPDEST DUP7 SSTORE POP PUSH2 0x133E JUMP JUMPDEST PUSH1 0x1F NOT DUP5 AND PUSH2 0x12EC DUP7 PUSH2 0x10C8 JUMP JUMPDEST PUSH1 0x0 JUMPDEST DUP3 DUP2 LT ISZERO PUSH2 0x1314 JUMPI DUP5 DUP10 ADD MLOAD DUP3 SSTORE PUSH1 0x1 DUP3 ADD SWAP2 POP PUSH1 0x20 DUP6 ADD SWAP5 POP PUSH1 0x20 DUP2 ADD SWAP1 POP PUSH2 0x12EF JUMP JUMPDEST DUP7 DUP4 LT ISZERO PUSH2 0x1331 JUMPI DUP5 DUP10 ADD MLOAD PUSH2 0x132D PUSH1 0x1F DUP10 AND DUP3 PUSH2 0x123A JUMP JUMPDEST DUP4 SSTORE POP JUMPDEST PUSH1 0x1 PUSH1 0x2 DUP9 MUL ADD DUP9 SSTORE POP POP POP JUMPDEST POP POP POP POP POP POP JUMP INVALID LOG2 PUSH5 0x6970667358 0x22 SLT KECCAK256 SWAP8 0xA8 0xE1 0xCA DUP5 PUSH24 0xFEDC74004BA175412762F8C9EC20923569000FE1D9F3EF09 DUP12 SWAP12 PUSH5 0x736F6C6343 STOP ADDMOD SGT STOP CALLER "},"methodIdentifiers":{"createOrganization(string,string,uint256)":"79a876a0","getAllOrganizations()":"086ed938","getDonationLink()":"d87d0cc0","getOrganiationsCount()":"9e8a131a","getOrganization(uint256)":"4526f690","makeDonation(uint256,address)":"b22c70de","organizations(uint256)":"e792dd8a","owner()":"8da5cb5b","receivedTokens()":"fd010881","trackTokensReceived()":"a9decb36","withdrawnTokens()":"0905aa5c"}}}}}